:1000000044C200005FC200005DC200000C94801B6F
:1000100059C2000057C2000055C2000053C2000080
:1000200051C200004FC200000C94C3230C949024D2
:100030000C94051E47C2000045C2000043C20000E8
:1000400041C200003FC200003DC200003BC20000B0
:1000500039C200000C94A81E35C2000033C2000053
:1000600031C200002FC200002DC200002BC20000D0
:1000700029C2000027C2000025C2000023C20000E0
:1000800021C200001FC200001DC200001BC20000F0
:1000900019C2000017C2000015C2000013C2000000
:1000A00011C200000FC200000DC2000000001700C6
:1000B000150008001A00140000000A0009000700DB
:1000C0001600040000000500190006001B001D00BA
:1000D0002C009000E0000000E100000000001C0087
:1000E00018000C001200130000000B000D000E00A1
:1000F0000F002D00000011001000360037003800FE
:1001000028009000E60000002A00000000002F00F8
:10011000150008001A00290000002200210020001C
:100120001F001E00000090001900E200E3002B00F9
:10013000010001000100000001000000000030008B
:100140003102330034003500000023002400250074
:1001500026002700000091005000520051004F007F
:1001600001000100010000004C000000000022021C
:10017000210220021F021E02000022002100200096
:100180001F001E000000310030002F002E00010073
:100190000100010001000000010000000000230236
:1001A0002402250226022702000023002400250045
:1001B000260027000000310235002E022F023002F7
:1001C00001000100010000002A0000000000000002
:1001D000000000000000000000000000000000001F
:1001E000000000000000000000000000000000000F
:1001F00001000100010000000100000000000000FB
:1002000000000000000000000000000000000000EE
:1002100000000000000000000000000000000100DD
:1002200001000100010000000100000000000000CA
:10023000000000002A2B2800000000000000000041
:100240000000000000000029000000002C1E3420E7
:10025000212224342627252E362D3738271E1F200D
:100260002122232425263333362E37381F04050652
:100270000708090A0B0C0D0E0F1011121314151696
:100280001718191A1B1C1D2F3130232D3504050694
:100290000708090A0B0C0D0E0F1011121314151676
:1002A0001718191A1B1C1D2F3130354C0000000087
:1002B000000000000000000000000000000000003E
:1002C000000000000000000000000000000000002E
:1002D0007E0F00D4FFFFFFC7000000780E0362000E
:1002E000650061006E0033003800000012037300E7
:1002F0006F0075005F0061006F006D006900000015
:100300000403090409025B00030100A0FA090400C8
:100310000001030101000921110100012240000731
:10032000058103080001090401000203000000091F
:10033000211101000122220007058203200001078C
:100340000503032000010904020001030000000965
:10035000211101000122B6000705840320000112CB
:1003600001000200000008415386810100010200E3
:10037000010660FF0961A1010962150026FF0095D1
:1003800020750881020963150026FF009520750875
:100390009102C005010902A10185020901A1000520
:1003A0000919012908150025019508750181020523
:1003B00001093009311581257F95027508810609EB
:1003C000381581257F950175088106050C0A3802CC
:1003D0001581257F950175088106C0C0050109803A
:1003E000A101850319012AB700150126B70095015F
:1003F00075108100C0050C0901A101850419012AAD
:10040000A002150126A002950175108100C005010A
:100410000906A1018506050719E029E71500250150
:100420009508750181020507190029EF15002501BE
:1004300095F07501810205081901290595057501D9
:100440009102950175039101C005010906A10105FD
:100450000719E029E7150025019508750181029526
:1004600001750881010507190029FF150026FF0005
:10047000950675088100050819012905950575017E
:100480009102950175039101C00011241FBECFEFA9
:10049000DAE0DEBFCDBF11E0A0E0B1E0E4E4FEE4CD
:1004A00002C005900D92AE3AB107D9F722E0AEEA4C
:1004B000B1E001C01D92AC3DB207E1F70E94791393
:1004C0000C94F7269DCD81E0089581E00895FDCF3D
:1004D00008950895FECF0895A5E0B0E0E2E7F2E0C8
:1004E0000C946A2649835A833091B10189819A819B
:1004F000311116C0662389F0222379F0EFD5182F29
:10050000682F89819A81C8D569817A81812F0E945B
:1005100051192596E3E00C948626CFD5182FF4CFF9
:10052000DDD569817A81F3CFFC01262F408151818D
:10053000628173818481D0CF089581E00895CF9343
:10054000DF93EC0160E0F0DFBE01C4DFDF91CF910B
:100550000895E1E0F0E0DF0102C0AA0FBB1F6A9539
:10056000E2F7BD01DF0102C0AA0FBB1F4A95E2F707
:100570006A2B01C0EE0F2A95EAF7962F982396135F
:1005800002C08E2B0895E0958E230895242F462FC8
:10059000682F8091C401DDDFE9C408950C94DF0F5A
:1005A00008950C94E20F089508958AD4FDDF2FEF8B
:1005B00084E39CE0215080409040E1F700C00000BF
:1005C0000895F3DF0C94CC1E0895EFDF0C94DD1E2C
:1005D00008950F931F93CF93DF938C0161E0A4DF05
:1005E000EC01B8010E945116811106C080E0DF9134
:1005F000CF911F910F910895B801CE0168DF882334
:10060000A9F3B801CE010E94931A882379F3B801A7
:10061000CE010E944717882349F3B801CE010E94FA
:10062000071A882319F3F8018281882361F0CA35FB
:10063000FDE5DF07E9F050F4C115ECE5DE0781F0D8
:10064000CE3DDC4579F0C8013EDFD1CFCC358DE51C
:10065000D80759F080F0C73ADD45A9F7B6DFC6CF15
:10066000B0DFC4CF0E94F70CF9CF0E94380CEBCF5B
:100670000E94410CE8CF0E94440CE5CF0E94E61D89
:10068000D0C00895D1D00C94EA1D0895B0E0A0E048
:10069000ECE4F3E00C946626E82FF0E0E45DFD4F17
:1006A000D490282F26952695269530E0F901E4531D
:1006B000FD4F0491877010E0082E02C01595079534
:1006C0000A94E2F701701127F901E454FD4FE49018
:1006D000F12C082E02C0F594E7940A94E2F791E019
:1006E000E922FF24F901E455FD4FC491D0E002C096
:1006F000D595C7958A95E2F7C170DD2701151105DB
:1007000011F081EED6D0E114F10411F086EED1D0D3
:100710008D2DBAD1E114F10411F086EE4FD10115FF
:10072000110511F081EE4AD1CD2B11F08CE2ACD144
:10073000CDB7DEB7E7E00C948226EF92FF920F93DD
:100740001F93CF93DF93EC01162F0AE08881882353
:1007500009F450C0813009F04BC08981813091F497
:100760007E0122E0E20EF11C8A818ED1E701219602
:10077000812F815058F3EFE9FFE03197F1F700C086
:100780000000F7CF823039F47E0182E0E80EF11CE0
:100790008A818FD0EBCF833039F47E01E2E0EE0E18
:1007A000F11C8A810BD1E2CF843011F02196DFCF8A
:1007B0002A81229690E080E0AE014F5F5F4F205388
:1007C000330B2A30310548F0019788F2EFE9FFE05A
:1007D0003197F1F700C00000F7CF089FB001099FE3
:1007E000700D1124C901860F971F2981EA01E4CFFA
:1007F0004DDFBDCFCDB7DEB7E6E00C94832660E0D9
:100800009CCF08950895FECF089581E00895FDCF0F
:1008100008950895CF93C82FF6DF8C2FF8DFCF917E
:10082000089580E0F7CF08950E949A1CF3CF0895B1
:100830000E949A1C9091B001981719F08093B00112
:10084000E9CF0895ABE0B0E0E8E2F4E00C946B2669
:100850004F83588769877A878B87611161D71E829A
:100860001D8285E0FE013796DE01119601900D9202
:100870008A95E1F78C819D81892B59F449815A81B0
:100880006B817C818D819E817AD62B96E2E00C94DF
:10089000872689819A8189238F3F81F3CE01019632
:1008A0004CDE8111EBCFF1CFFC018081918142C4FC
:1008B0000895CF93C82F8823A9F08238A9F40E9405
:1008C0009A1C81FD0FC089E3E3D648D72FEF81EE54
:1008D00094E0215080409040E1F700C0000089E39F
:1008E000DFD63CD7CF910895833891F40E949A1CAB
:1008F00080FDF8CF83E5CCD631D72FEF81EE94E0A1
:10090000215080409040E1F700C0000083E5E8CF2F
:10091000843891F40E949A1C82FDE4CF87E4B8D613
:100920001DD72FEF81EE94E0215080409040E1F7F9
:1009300000C0000087E4D4CF8CEF8C0F813A78F4AC
:100940006C2F80910001909101010E94161D882357
:1009500019F08C2FA5D602D78C2F9AD6C2CF80E261
:100960008C0F883040F4C77081E001C0880FCA95B1
:10097000EAF7B9D6B6CFEBE5EC0FE33040F4F0E0A0
:10098000E25AFE4F808190E00E94D61CABCFE8E592
:10099000EC0FE73150F4F0E0EE0FFF1FE05DFE4F8B
:1009A000808191810E94EC1C9DCFC03F08F49ACFBA
:1009B0008C2F0E94F9130E94C41494CF882309F449
:1009C0004CC0823859F40E949A1C81FF46C089E3CA
:1009D0005FD6C4D689E364D6C1C60895833849F486
:1009E0000E949A1C80FF39C083E552D6B7D683E5B2
:1009F000F2CF843849F40E949A1C82FF2EC087E40B
:100A000047D6ACD687E4E7CF9CEF980F913A18F31E
:100A100090E2980F983048F4877091E001C0990FE8
:100A20008A95EAF7892F65D6D7CF9BE5980F933043
:100A300028F490E080E00C94D61C089598E5980F77
:100A4000973128F490E080E00C94EC1C0895803FEE
:100A500020F00E944B140C94C41408951F93CF935C
:100A6000DF93182FEB0125DF209731F4812FA6DFCC
:100A7000DF91CF911F9108958FE99FE00197F1F7E2
:100A800000C000002197F0CF70E060E0893311F4DE
:100A900060E570E0E3CF0895882311F024D65EC6A8
:100AA0000895882311F025D659C60895B0E0A0E036
:100AB000ECE5F5E00C9464266C01D62FC72FFC0101
:100AC0001281F580F2949FE0F92203D6E82E882364
:100AD000A9F0E12E112391F08C2F807F803421F03A
:100AE00080E28D0F8830C0F08091B80282FF14C080
:100AF00082E091D6EED591E0E82EE926BC2EB294A4
:100B00008FE0B822FBE0FB1508F45DC0EB2DF0E0B0
:100B1000E750F94D0C944E26E12CF0CF0C2F0F70BE
:100B2000C07F11F00295007F112381F0002349F06E
:100B300080E28D0F883010F0D11105C0802FD3D501
:100B40000DD68D2F3AC0802FDED5FACF8D2F36DF10
:100B5000002309F438C080E28D0F883010F0D111E5
:100B600003C0802FC6D502C0802FD3D5F7D52BC0A8
:100B70000C2F0F70C07FC03211F00295007FDD2373
:100B800081F0D13009F452C0112309F45CC0FF2078
:100B900009F452C0F601858180FFD3CF8F70858321
:100BA0004BC08091B80282FD28C0112341F0002380
:100BB00019F0802F98D5D2D580E07BDE04C080E08C
:100BC000FDDE0111CECFEB2DE850FF0B349718F46A
:100BD0000E949A1C1FDEEE2059F077D580FD08C0D8
:100BE000F60112826CD5D2D1C60133D168D5D9D1E4
:100BF000CDB7DEB7E9E00C948026112369F0F1103F
:100C000004C091D5802B48DFDECF21E0F212F9CF6E
:100C10008AD5802B8ED5D7CFF11004C096D5802FE2
:100C200040DFD1CF31E0F31671F2F8CF112331F06C
:100C300085E08F1508F4C7CF802FE5CF94E09F158E
:100C400008F4C1CFECCFFF2051F3D93349F4FFEFC3
:100C500027EE33E0F15020403040E1F700C00000C3
:100C60008D2FACDEB0CF8C2F86958695837069F082
:100C7000813009F0A8CF8D2F9C2F9370111102C0E5
:100C800090E080E00E94EC1C9ECF8D2F9C2F9370F3
:100C9000111102C090E080E00E94D61C94CF8D2FED
:100CA000112329F00E94F9130E94C4148CCF0E94D2
:100CB0004B14FACF8C2F837059F5111184CF4D2F1F
:100CC000429546954770440F440F8D2F8F70042E28
:100CD00001C0880F0A94EAF72D2F2071D4FF07C0B6
:100CE0002FE030E001C0220F4A95EAF72095C69523
:100CF000C695C370822BC23039F040F4C13011F078
:100D000027D161CF20D15FCF28D15DCF1AD15BCF62
:100D10008695112311F08C2F8170882309F453CF0D
:100D20004D2F429546954770440F440F8D2F8F707D
:100D3000042E01C0880F0A94EAF72D2F2071D4FFEA
:100D400007C02FE030E001C0220F4A95EAF7209556
:100D5000C695C695C370822BC23039F040F4C130BD
:100D600011F03BD130CF34D12ECF3CD12CCFFED09F
:100D70002ACFCF70112321F08C2F08D18D2F43CF94
:100D80008D2F8FDE8C2F0DD11ECFD23F49F160F415
:100D9000D03FB9F0D13F81F0112309F441C0F110E7
:100DA000D0CE8C2F8F7120C0D33F01F1D43FA1F75B
:100DB0008091B80282FD22C08C2F8F71112319F30C
:100DC00013C0112341F084E08F1508F4FCCE8C2F62
:100DD0008F71F3D0F8CE95E09F1508F4F4CEF7CFDD
:100DE0008C2F8F711111CFCFD1D0EDCE112321F0E7
:100DF0008C2F8F71C3D0E7CEBED0E5CE112339F052
:100E0000CF718C2FC3D063E08C2FEBD4DCCE81E08C
:100E100002D5E1E0EF1508F0D6CE82E0FCD4D3CEC7
:100E2000F11013CF8C2F8F71AECF0F931F93CF93F1
:100E3000DF93EC01688179818A8185D18C01D7D0DB
:100E40007FD0B801CE0132DEDF91CF911F910F919B
:100E50000895CF93DF93EC018B819C81892B29F03E
:100E60008881998189238F3F41F4DF91CF91089543
:100E7000CE01DBDFCE0163DBF8CFCE01AADB81112F
:100E8000F7CF27D4882389F38A81882371F380914F
:100E9000B80282FFEACF82E0BED4E7CF90E080E0E4
:100EA0000E94D61C90E080E00E94EC1C39D456D4FD
:100EB0000E94DF140C94C4140895FAD3EFCF089560
:100EC0001FD4FBCF089592959F70963091F058F4FF
:100ED000925F9F70923058F4803F19F030F4883E52
:100EE00030F481E008959A5FF4CF843FD1F380E03D
:100EF0000895883EB0F3813FD1F7F3CFFC018081A4
:100F0000918118D1E0CF0895A5E0B0E0EAE8F7E0DC
:100F10000C946B262596E2E00C948726A6E0B0E0C0
:100F2000E4E9F7E00C946B262696E2E00C94872621
:100F30000895FECF0895FDDF8093C501AFCF0895DA
:100F40000895F9CF08959091C501892BF4CF0895A4
:100F50009091C5018923EFCF08959091C50189270C
:100F6000EACF0895E5CF0895FDCF0895FDDF809382
:100F7000C40194CF089580E0F9CF089591E001C0B5
:100F8000990F8A95EAF7892FF1CF089521E030E093
:100F900001C0220F8A95EAF78091C401822BE6CF27
:100FA000089521E030E001C0220F8A95EAF72095EC
:100FB0008091C4018223DACF089521E030E001C09E
:100FC000220F8A95EAF78091C4018227CFCF089536
:100FD0009091C401892BCACF08959091C4018923AF
:100FE000C5CF08959091C4018927C0CF0895089571
:100FF000262F277091E001C0990F2A95EAF723E088
:10100000769567952A95E1F7FB01EE0FFF1FE60F36
:10101000F71FE40FF51F50E040E0682F70E081916A
:10102000DF0111979B01042E02C0369527950A9483
:10103000E2F7217021952827292328272C934F5F39
:101040005F4F4330510559F70895A82FA77023E04B
:10105000969587952A95E1F7FC01EE0FFF1FE80FA3
:10106000F91FE60FF71F50E040E080E0219130E0EB
:101070000A2E02C0369527950A94E2F7217033278D
:10108000042E01C0220F0A94EAF7822B4F5F5F4FB4
:101090004330510559F70895262F983068F486306B
:1010A00058F4682F70E086E0989F600D711D112440
:1010B00042EB51E0822F9CCF0895292F983060F4A5
:1010C000863050F490E062EB71E036E0239F800DB3
:1010D000911D1124BACF089580E00895CF92DF9238
:1010E000FF920F931F93CF93DF936C010091C40184
:1010F0008091C501082BC7E0D0E010E0FC2EC801AC
:101100000C2E02C0959587950A94E2F780FD0CC0DD
:101110002197A0F7F12C8F2DDF91CF911F910F9187
:10112000FF90DF90CF900895B6018C2F00D60197E5
:1011300079F3F1CFCF93DF93EC01D0DFBE01F7D588
:10114000DF91CF9108951F93CF93DF93EB0190919F
:10115000B101992331F0CB01EDDFDF91CF911F91E8
:101160000895882351F0CB01B9DF182F682FCE01E5
:1011700093DFBE01812FDBD5F0CFCB019EDF182F8F
:10118000F8CF1F93CF93DF93C091C60116E08091F3
:10119000C7018C1304C0DF91CF911F910895D0E057
:1011A0001C9FF0011D9FF00D1124E853FE4F40815C
:1011B00051816281738184819581B0DE2196C770EF
:1011C000E6CF4091F8015091F9016091FA017091D8
:1011D000FB018091FC019091FD01A0CE08951F9329
:1011E000CF93DF938091FD01807F09F047C080910C
:1011F000FA01882309F442C08091C601C091C70159
:101200006091F8017091F901A091FB01B091FC018E
:10121000D62FD72316E0C81789F190E0109711F068
:10122000DF3F19F401968770F6CF189F9001199F40
:10123000300D1124F901E853FE4F41814713F2CFDD
:1012400040814613EFCF42814111ECCF438154815D
:101250004A1B5B0B4639510528F78091FD018F70C1
:1012600080618093FD01F901E353FE4F80818F700F
:101270008061808388EF91E0ECDD83DFDF91CF91A7
:101280001F910895A1E1B0E0E8E4F9E00C94632631
:101290008C0185E0F801DE011D9601900D928A9582
:1012A000E1F7D8011296EC90129788EFC82E81E0F2
:1012B000D82E6091FB017091FC016115710509F454
:1012C00045C19091F8012091F901892F82238F3F28
:1012D00009F43CC14C9111965C9111971396AD9015
:1012E000BC90F090FA01F501E61BF70BFF2009F422
:1012F000E3C08091FD01382F307FE639F10508F019
:10130000A6C0311175C0FE2C251315C0941313C04F
:10131000E11011C08F7080618093FD0152DFC60122
:1013200098DD8091FD01D80115968C938F2D6196E3
:10133000EAE00C947F26A114B10429F0842F8523C0
:101340008F3F09F019C180E0B82FB170DB2E80FF0C
:101350003AC08091C6012091C70136E0821314C0C3
:101360004D875E878D859E85E5DE292F22952F701E
:101370002230F0F0243018F59F70F1F0F8019581DB
:10138000907FD1F4D12C1DC090E0389FF001399F9F
:10139000F00D1124E853FE4F6181651306C0608192
:1013A000641303C06281E6120EC001968770D6CF27
:1013B0009F7011F0882331F3805E883018F3C801E4
:1013C00048DDFD2CB3CFEE2009F4B0CF8091FD01B4
:1013D00081608093FD0188EF91E03BDD86E0E8EFDE
:1013E000F1E0DF011D928A95E9F7EBDEF12C9ECF4B
:1013F000251306C0941304C0F801EE2009F478C048
:10140000C8017CDD882301F1EE20F1F08091FD011F
:10141000803268F02091F8013091F90138872F83EC
:101420001986BB86AA868C87CE01079612DD86E0D8
:10143000F801A8EFB1E001900D928A95E1F7CFDEB7
:10144000C0DEFF24F39472CFC80103DDFACF31115F
:101450000CC07A2DB98AA88A6E2D898955DD88EF4E
:1014600091E0F7DC86E0D601BDCF25130EC09413C2
:101470000CC0E1100AC0F8018583C801EADC86E0EF
:10148000D6011D928A95E9F751CFC80137DD88232F
:10149000D9F2EE20C9F28091FD01803240F2209114
:1014A000F8013091F9013A8329831B82BD82AC8215
:1014B0008E83CE010196BACFE639F10508F03AC025
:1014C000FE2CEE2009F4C0CF251328C0941326C0AB
:1014D0008091FD0180FD19C0982F907FB1F0F80137
:1014E0008583903F31F0982F907F905F8F70892B8C
:1014F0008583C801AEDC86E0F801A8EFB1E0019079
:101500000D928A95E1F75DDE11CF86E0F801A8EF34
:10151000B1E001900D928A95E1F708CFC801EEDCA9
:10152000811185CF8091FD0181608093FD01C8010B
:1015300090DCFCCE7A2DB98AA88A6E2D8989E4DCEC
:1015400086E0D6011D928A95E9F7DDCFEE2009F4F9
:101550007BCFC801D3DCF82E882309F475CF86E051
:10156000F801A8EFB1E001900D928A95E1F788EFBC
:1015700091E09AD934DEC7CF81E08E25E5CEACE08C
:10158000B0E0E5ECFAE00C946A264F83588769874F
:101590007A878B879C87CE01079674DE882369F053
:1015A0008A859B85892B39F04F815885842F852327
:1015B0008F3F09F067C016E05BC086E0FE013796FA
:1015C000DE01119601900D928A95E1F78A859B853F
:1015D000892B89F38F81988589238F3F61F320912F
:1015E000C70130E0C9010196877099274091C60173
:1015F0004817190669F464DC1092C7011092C601FD
:1016000086E0E8EFF1E0DF011D928A95E9F7D3CF9C
:1016100096E0929FD001939FB00D1124A853BE4F26
:10162000FE01319601900D929A95E1F78093C701E2
:10163000A8DDC1CF819FC001112488539E4F22DEB7
:101640008823E1F0E091C6011E9FF0011124E853C8
:10165000FE4F4081518162817381848195815EDC7E
:101660008091C60190E00196877099278093C6010A
:101670008091C6019091C7018913DCCF2C96E3E0DD
:101680000C94862669857A858B859C8547DC93CF6B
:10169000682F80910001909101010C94961D08958E
:1016A000682F80910001909101010C94A21D089572
:1016B00080910001909101010C94AE1D08958091DC
:1016C0001E02859585958595089580911E028770E7
:1016D000089590911E02977081E009F480E00895CA
:1016E00080914102089590914102892B809341029B
:1016F0000895809590914102982390934102089516
:1017000010924102089590914002892B80934002EB
:1017100008958095909140029823909340020895F7
:1017200010924002089580911F0208950895FECFFF
:1017300008959091B80292FF07C090911F029817E8
:1017400019F080931F02F3CF089580911F02882320
:1017500021F010921F0280E0EACF0895CF93DF932B
:10176000E0910001F0910101809141028083E091BC
:101770000001F0910101808190914002892B8083CA
:1017800090911F02992379F0E0910001F0910101FD
:101790008081892B808380910001909101010E94BA
:1017A000021D8111D2DFC0910001D091010140E200
:1017B00050E06EEF71E0CE010E94A626892B59F011
:1017C00080E2FE01AEEFB1E001900D928A95E1F763
:1017D000CE010E94AE1CDF91CF9108950895FECFF7
:1017E00008959091B80292FF0FC098E0899F9001F0
:1017F0001124622B60931E02C9DB80911E02859525
:1018000085958595ECCF0895C1CB089510921E0261
:1018100080E0E5CF089590911E0280958923809302
:101820001E02282F277081F4282F082E000C330B5E
:101830009217130649F09091B80292FF05C0859562
:1018400085958595AEDBE2CF08959091B80292FB25
:10185000222720F9281759F080FB92F99093B802BB
:101860008091B7029091B8023DD082E0D4CF089524
:101870008091B80282FB882780F991E08927E5CF23
:10188000089581E0E2CF089580E0DFCF08956FEF03
:101890007FEF90E080E00C94E326089590E080E0F4
:1018A0000E94C426883E9E4F19F40C94F7150895A3
:1018B00080E0089582E090E00C94BC26089583E0D7
:1018C00090E00C94BC260895CF9384E090E00E94B1
:1018D000BC26C82F82E290E00E94BC26982F8C2F55
:1018E000CF910895CF93C92F682F84E090E00E9494
:1018F000C9266C2F82E290E00E94C926CF910895FC
:10190000AB01BC018FE090E00C94DB260895AB01A5
:10191000BC0183E190E00C94DB26089560E070E068
:10192000CB01F5CF089560E070E0CB01E9DFF6CFA1
:10193000089568EE7EEF90E080E00E94E32660E08C
:1019400082E090E00E94C92660E083E090E00E947F
:10195000C9261092C50160E084E090E00E94C9268B
:1019600064E082E290E00E94C92660E085E090E0B9
:101970000E94C92660E086E090E00E94C9266FEFD1
:1019800087E090E00E94C92640E050E0BA0188E07C
:1019900090E00E94DB2660E08DE090E00E94C92686
:1019A00040E050E0BA0188E190E00E94DB2660E070
:1019B00087E190E00E94C92640E050E0BA018CE146
:1019C00090E00E94DB2670E060E080E290E00E9400
:1019D000E32640E050E0BA0188E190E00E94DB2677
:1019E00080E00E9410160E943E169DCF0895A1CF60
:1019F0000895682F8EE090E00C94C92608950E9407
:101A0000711E60934E0270934F0280935002909328
:101A1000510260934A0270934B0280934C02909360
:101A20004D02089508950895FECF08950895FECFBC
:101A3000089583EB9FE00E94901CF4DFF5CF08959A
:101A400062C4089508950895FDDFFDCF0895A1D2E1
:101A50000C94090408950E945C1E47D20E94491606
:101A60006CD4B6D3F4DF0E942F176ED4E0CF089564
:101A7000AAE0B0E0EEE3FDE00C946226CAD3C82EE3
:101A80008111BDDF82E4A82E82E0B82E10E000E0D4
:101A9000902E802F99D2E82EF501F1905F01F81673
:101AA000A9F18091520281FD95D28F2D8E25D12CE6
:101AB000FF24F394982F9F2121F1C2DF882399F00E
:101AC000DE829F82EF2081E009F480E088870E9417
:101AD000651E8160782F9A8789874E815F8168852E
:101AE0008A850E942204F801EE5BFD4F8081F82672
:101AF000F08281E0C11001C080E02A96EBE00C94F6
:101B00007E26D394FF0CF6E0DF12D4CF0F5F1F4F79
:101B10000830110509F0BCCF8FEF89838A831B82BF
:101B20000E94651E8160782F9D838C8349815A8134
:101B30006B818D810E942204DCCF9ADFE4D361D7D0
:101B40000C9418040895CF93DF93F5D0EC01811520
:101B500021E5920708F042C0811530E5930708F0AF
:101B60009BC0883E910530F5803E910508F090C0FD
:101B7000883A910588F4853A910508F082C0813051
:101B8000910509F485C0009709F482C0049708F014
:101B90007FC0D0E0C0E07CC08F3B9105D0F7C85A31
:101BA000D0E0CC0FDD1FCF59DE4F0990D881C02D7A
:101BB000D4646EC08115904250F4C11581E0D807FD
:101BC00008F066C0C03FD10520F3D06561C0C115E3
:101BD00090E4D907F0F2DF70D06A5AC0811525E58C
:101BE000920700F5811534E5930708F089C0811547
:101BF00043E5940708F071C0C11582E5D80708F4E1
:101C000067C0CE018370992721E030E002C0220F27
:101C1000331F8A95E2F7C695C69580E2C89FE0011A
:101C2000112452C0C11599E5D907A0F4C11528E5C2
:101C3000D20708F06AC0C11536E5D30708F0A9CF6E
:101C40008C2F10D1C82FD0E0DC2FCC27CC27DF7110
:101C5000D0621EC0C1154AE5D40708F45BC0CE01AE
:101C600090568115904208F094CF8D2F8F71FAD045
:101C700090E0982F882788279F719C012C2BE901E1
:101C8000E7CFC55AD0E0C157DE4FC881D0E0D0645D
:101C9000CE01DF91CF910895E4E096958795EA957E
:101CA000E1F783702C2F26952695237040E2249F20
:101CB00090011124382B8C2F8370C1E0D0E002C03A
:101CC000CC0FDD1F8A95E2F7C22BD32BDC68E0CF67
:101CD000DC2FCC27C16FD06ADBCF8370992721E03E
:101CE00030E002C0220F331F8A95E2F7C695C695F1
:101CF00090E2C99FE0011124C22BD32BDA68C8CF30
:101D0000D82FCC27C46FD06AC3CFDC2FCC27C06FAD
:101D1000D06ABECF8C2F8F70A5D034E0D695C795F2
:101D20003A95E1F7CF709C2FEC01D069B1CF0E94BA
:101D3000511909CF089582389105B1F1B0F481337A
:101D4000910509F475C048F48932910509F469C018
:101D50008A32910509F473C008958533910509F419
:101D600059C08933910501F10895833E9105A9F188
:101D700038F4803E9105F9F0823E910549F10895CD
:101D8000863E9105A9F1873E9105C9F1843E9105F2
:101D900019F52091B80221FF1FC08091B70284FD80
:101DA00014C087EE90E008952091B7022370A1F04F
:101DB00080EE90E008952091B70220FD47C0309159
:101DC000B80230FF09C024FF44C090E080E004C0A6
:101DD0002091B70222FDF7CF08952091B70222FD8E
:101DE0003BC03091B80230FDE3CF24FFF5CFEDCFFB
:101DF0002091B70223FFF0CF24FDE7CFD2CF20916F
:101E0000B70223FD2CC03091B80231FFEECF84EE33
:101E100090E008952091B70225FFDECF89E290E09F
:101E200008952091B70225FFD7CF85E390E008956C
:101E30002091B70226FFD0CF8AE290E0089520914A
:101E4000B70226FFC9CF81E390E0089589E390E0CF
:101E5000089583EE90E0089582EE90E0089586EE76
:101E600090E008959091B70292FF06C0282F287144
:101E70002830F9F4877F846093FF06C0282F2871EB
:101E80002831F1F4877E84612091B80220FF06C0DA
:101E9000382F38713830D9F4877F816021FF06C030
:101EA000282F28712831D1F4877E816194FD877EA7
:101EB0000895282F24712430F9F68B7F8860DCCFB9
:101EC000282F2471243101F78B7E8861DDCF382FD4
:101ED0003171313019F78E7F8860E0CF282F217162
:101EE000213121F78E7E8861E1CF1092B3021092EA
:101EF000B4021092B5021092B6020895CF92DF920A
:101F0000EF92FF926B017C01FED181110EC00E9405
:101F1000711EC61AD70AE80AF90AC092B302D09213
:101F2000B402E092B502F092B602FF90EF90DF901B
:101F3000CF9008950F931F93E6D1882329F00E9434
:101F4000711E1F910F9108950E94711E0091B3029E
:101F50001091B4022091B5023091B602600F711F4A
:101F6000821F931FEECF80E0089591CC089551D148
:101F70008FE39CE90197F1F700C000004AD180E0AF
:101F800023D080FF03C0F1DF0C94CC1E0895EFCF67
:101F9000089584DC811101C02ADD8CDC809352021B
:101FA00093DC9093B8028093B702F1DF88DC0E9443
:101FB000A1078091C4010C94B40708950895FECF41
:101FC00008950895FECF0895E82FF0E0EE53FD4FF9
:101FD00080810895089580EA8A95F1F7089500C0F8
:101FE0000895F9CF08950895FECF0895EF92FF92D6
:101FF0001F93CF93DF9300D000D0CDB7DEB783D14E
:10200000182F6091CA02882309F446C019821A82E7
:102010001B821C82862F90E09E012F5F3F4F79012B
:10202000B9018E539D4F9CD18823E9F08091B9026C
:1020300090E044E050E0B7018E539D4F0E94A626E9
:1020400021E020935302892BC9F410E00E94D102B1
:10205000812F0F900F900F900F90DF91CF911F91D4
:10206000FF90EF90089580915302882371F384E0EC
:10207000F70111928A95E9F710925302E091B902A3
:10208000F0E0EE53FD4F89819A81AB81BC81808362
:102090009183A283B383DACF70E06E537D4F80913A
:1020A000B90290E08E539D4FE0D19EDFD1CFF894DE
:1020B000E82FE295EF70F0E031A1282F2F7081E03A
:1020C00090E001C0880F2A95EAF7982F9095932306
:1020D00091A392A1892B82A378940895CF93DF9343
:1020E000C2E9D1E089918F3F09F0E1DF81E0C83991
:1020F000D807C1F784E9DBDF86E6D9DF87E9D7DFD8
:1021000086ECD5DFDF91CF910895B0E0A0E0EBE859
:10211000F0E10C9465267C01162F042FC62FD0E029
:10212000CE56DE4F28812F3F09F449C0F894E22FA4
:10213000E295EF70F0E031A12F7081E090E001C0F6
:10214000880F2A95EAF7932F982B91A392A1809557
:10215000892382A3789443DF88E9C82E81E0D82EB2
:10216000F701A7014C5F5F4FF12CE02EE094D60100
:102170009D916D0181919F01215031099F3F21F176
:10218000692F62956F7070E0DB0190966C9170E042
:102190009F7002C0759567959A95E2F760FD14C02F
:1021A000802BD9018C93FF24F394E417F507F9F6FB
:1021B00088818F3F09F07BDF6F2D812F12DFCDB734
:1021C000DEB7E8E00C9481268E21D9018C93EDCF07
:1021D000809102018091020194E0811190E090933E
:1021E000CA0284E0891B8093B90278DF88E0E2ECC0
:1021F000F2E0DF01982F1D929A95E9F7EAEBF2E001
:10220000DF011D928A95E9F784E047D00C94CE0255
:102210000895A8E0B0E0EFE0F1E10C9467268E01AC
:102220000F5F1F4F88E0F80111928A95E9F7F12CB2
:10223000EE24E3944E2D6F2DC80167DFF394EE0C6E
:10224000F6E0FF12F7CF48E050E0B8018AEB92E0E9
:102250000E94A6267C0121E0892B09F420E0E114EC
:10226000F10441F088E0F801AAEBB2E001900D9290
:102270008A95E1F76091CA0270E06E537D4F44E0A9
:102280008AEB92E00BD081E090E0E114F10409F4D4
:10229000ADDE2896E6E00C9483260895FF920F9316
:1022A0001F93CF93DF93F82E092F162FD72FC42F0C
:1022B000222349F081E0809356020E94651E90938C
:1022C000550280935402809156028823A1F0809198
:1022D0005402909155020E947D1E059760F0EF2DEB
:1022E000F02FA12FBD2FCE0FDF2FD11DEC17FD0733
:1022F00039F410925602CDB7DEB7E5E00C9484268F
:1023000081918D93F3CF80915902811107C00E9472
:102310002E26882351F081E08093590281E090912C
:102320005902913009F080E0089582E080935902CB
:102330000E942A26F3CFE7CF0895FDDF80930201A4
:10234000E2DF811142C00895DEDF811101C040C08B
:10235000089581E090915A029A3008F080E0089543
:102360000F931F93CF93DF93EC018B0180915A025F
:102370008A30B0F4B801CE0176D0C82F811122C0C6
:1023800080915A028F3FB9F40E94651E90935802C3
:10239000809357028C2FDF91CF911F910F91089559
:1023A00080915702909158020E947D1E843F914077
:1023B00008F7C0E0EFCF8F5F80935A028A3020F792
:1023C000C1E0E8CF10925A02E5CF0C943C1B08956F
:1023D0000C943F1B0895B0E0A0E0E1EFF1E10C9414
:1023E00066267901C82F880FDD0B41155105A9F02C
:1023F000FE0193E0EE0FFF1F9A95E1F7ED5FFE4FB0
:1024000081819281855A9D4F208130E04217530788
:1024100008F49A01A9010E94B326CE010E94201C53
:10242000D82E8823D1F001151105B9F083E0CC0F27
:10243000DD1F8A95E1F7FE01ED5FFE4F438150E01D
:102440000417150708F4A801CD5FDE4F6C817D816C
:10245000655A7D4FC7010E94B3268D2DCDB7DEB7DB
:10246000E7E00C948226F0C0089503C10895A4E02B
:10247000B0E0EDE3F2E10C94692660917002709196
:10248000710280917202909173020E948C1E11E081
:10249000643671058105910508F14CDD6E5F7F4F53
:1024A0008F4F9F4F69837A838B839C8310E000E07A
:1024B00030E020E044E050E0BE016F5F7F4F82E0FB
:1024C0008ADF182F882351F00E94711E60937002DA
:1024D000709371028093720290937302812F2496FD
:1024E000E4E00C948526B0E0A0E0E9E7F2E10C948A
:1024F00063267C015B016A012CDF01E010E0882388
:1025000011F00AE010E0C1E0D0E0B501C701F6012A
:102510000995811104C021960C171D072CF4CDB725
:10252000DEB7EAE00C947F26CC9F9001CD9F300D62
:10253000300D112490E080E045E34A95F1F700006A
:10254000019682179307C1F7E0CFA5E0B0E0EBEA70
:10255000F2E10C9463265B01E0909C01F0909D01F8
:1025600001E010E09E012B5F3F4F50E040E070E043
:1025700060E080E030DF182F882309F448C067014D
:102580008FEFC81AD80A60916C0270916D02809129
:102590006E0290916F020E948C1E64367105810557
:1025A000910570F104E010E09E012F5F3F4F50E075
:1025B00040E070E060E081E00EDFF82E64E070E063
:1025C000C6014ED411E09D81981310E01F2151F1F6
:1025D0000E94711E60936C0270936D0280936E0274
:1025E00090936F0289819A81AB81BC81809368024C
:1025F00090936902A0936A02B0936B0211E012C03B
:1026000064E070E0C6012CD49D818913CBCFF70123
:1026100081819281A381B48189839A83AB83BC83B6
:102620001111E0CF8091680290916902A0916A0235
:10263000B0916B02F50180839183A283B383812FD4
:102640002596EAE00C947F260F931F93CF93DF9398
:10265000EC018B0145EA52E146DF882329F047E38C
:1026600052E1B801CE013FDFDF91CF911F910F9171
:1026700008950F931F93CF93DF93C0919C01D09146
:102680009D01CE01019624E0FB01DC0101900D9239
:102690002A95E1F764E070E0E3D388836D817E8161
:1026A0008F819885009164021091650220916602E5
:1026B00030916702601771078207930749F06093B2
:1026C000640270936502809366029093670216DC41
:1026D000DF91CF911F910F9108950E94B320BBD934
:1026E0000C94BD2008950E94C12027DA0C94D720B5
:1026F00008950E94FE1D0E949A209BD9EEDFF3DF11
:10270000A3D9FDCF80917A0280FF0DC06091200196
:1027100070E0660F771F6038710570F561157105FF
:1027200069F1862F089581FF07C06091200184E040
:10273000689FB0011124EFCF6091200182FD0AC093
:10274000809179028823A9F020911F0160912001D6
:10275000821710F088E0ECCF869FC001112433E08F
:10276000880F991F3A95E1F7622F70E00E943B268F
:10277000D2CF68E070E0D5CF8FE7089581E008956B
:1027800080917A0280FF0CC060911C0170E0759509
:102790006795759567956115710549F1862F0895BF
:1027A00081FF06C060911C0170E075956795F3CFBD
:1027B00060911C0182FD0BC0909178029923A1F0D9
:1027C00060911B0180911C01961738F0682F70E012
:1027D0006038710500F38FE70895899FC0011124C7
:1027E00070E00E943B26F4CF61E070E0D7CF81E03B
:1027F0000895803F29F486DF819580937E020895B5
:10280000813F11F47FDFF9CF823F29F47BDF81958F
:1028100080937D020895833F11F474DFF9CF893FDF
:1028200021F4AEDF80937F0208958A3F19F4A8DF78
:102830008195F8CF8B3F29F4A3DF819580938002A7
:1028400008958C3F11F49CDFF9CF9CE0980F9530F0
:1028500070F4845F990B21E030E001C0220F8A956B
:10286000EAF780917C02822B80937C0208958D3F51
:1028700031F480917A02816080937A0208958E3FCC
:1028800021F480917A028260F7CF8F3FB9F780916F
:102890007A028460F1CF40917D02803F59F48091AB
:1028A0007E0287FF0DC010927E0241110BC0109274
:1028B000790208C0813F81F480917E0218169CF352
:1028C000442381F080917F0290918002892B09F04E
:1028D0005AC0109278020895823F49F447FFF0CF22
:1028E00010927D0280917E028111ECCFE0CF833F78
:1028F00019F41416ACF3E4CF90917F02893F29F4C8
:102900001916F4F610927F02DBCF8A3F19F497FF75
:10291000D7CFF8CF909180028B3F29F497FFD0CF8B
:1029200010928002CDCF8C3F19F41916CCF3C8CF8A
:102930009CE0980F953090F4845F990B21E030E093
:10294000B90102C0660F771F8A95E2F7CB01809527
:1029500090917C02892380937C02B2CF8D3F31F429
:1029600080917A028E7F80937A02AACF8E3F21F4E3
:1029700080917A028D7FF7CF8F3F09F0A1CF8091B0
:102980007A028B7FF0CF08950E94651E9C01909182
:102990007D0280917E02982B21F030937702209364
:1029A000760290917F0280918002982B21F03093E3
:1029B0007502209374028BE792E0EAC7089586E0DF
:1029C000EBE7F2E0DF011D928A95E9F710927902B8
:1029D0001092780210927A020895FC01828181118E
:1029E0000EC0838181110BC08481811108C091E0E8
:1029F0008581811101C090E0892F8170089581E067
:102A0000FCCFA6E0B0E0E7E0F5E10C946A2686E0B2
:102A1000EBE7F2E0DE01119601900D928A95E1F765
:102A200010927D0210927E0210927F02109280021C
:102A30008B819C81892B89F080917602909177021D
:102A40000E947D1EAC01909179029923B9F1809189
:102A500021018417150608F43EC08D819E81892BC3
:102A600091F080917402909175020E947D1EAC01DC
:102A700090917802992309F46DC080911D0184170B
:102A8000150608F475C0BE016F5F7F4F8BE792E0BB
:102A90000E94C01D811104C08BE792E09EDF81116E
:102AA00073DF86E0FE013196ABE7B2E001900D9254
:102AB0008A95E1F72696E3E00C9486262091220180
:102AC0008AE0289F900111242417350730F69F5F74
:102AD0009093790202C09F3FD1F71B81112351F0DF
:102AE00011DE9FEF11160CF491E0899F802D1124C7
:102AF00080937D021C81112351F004DE9FEF11169B
:102B00000CF491E0899F802D112480937E023091F6
:102B10007D02332309F4A1CF20917E02222309F400
:102B20009CCF45EB3403C0011124992359F09093B5
:102B30007D0245EB240390011124332339F03093B7
:102B40007E028BCF81E080937D02F3CF81E0809382
:102B50007E0283CF20911E018AE0289F90011124DC
:102B60002417350708F08FCF9F5F9093780202C03B
:102B70009F3FD1F71D81112351F002DE9FEF111607
:102B80000CF491E0899F802D112480937F021E8197
:102B9000112351F0F5DD9FEF11160CF491E0899FA0
:102BA000802D11248093800230917F02332309F419
:102BB0006ACF20918002222309F465CF45EB3403CC
:102BC000C0011124992359F090937F0245EB24030F
:102BD00090011124332339F03093800254CF81E0E7
:102BE00080937F02F3CF81E0809380024CCF83E219
:102BF00090E00E94BC26823289F484E290E00E9438
:102C0000BC26893059F485E290E00E94BC2691E010
:102C1000853009F090E0892F8170089580E0FCCF25
:102C2000CF93C82F6FEF811162E283E290E00E94A0
:102C3000C9266FEFC11169E084E290E00E94C926C5
:102C40006FEFC11165E085E290E00E94C926CF9147
:102C50000895089586E290E00E94BC26682F70E0F7
:102C600090E080E008950895CF93C62FFCDF6C2F8D
:102C700086E290E00E94C926CF91089580E0D0DFDF
:102C800060E070E0CB01F0DF8DD267D381E0C8CF88
:102C90000895DFDFDFDFE7DFAADF811101C0EECFBC
:102CA0000895CF93FB01C281CC2301F19C012251F5
:102CB0003F452031310518F582515FD3C0E08C2F9C
:102CC000CF91089581E00E94C60743E062E081E071
:102CD0000E94C602F3CF81E00E94D10743E062E088
:102CE00081E00E94C602EBCF82E0F6CF8031FFE5A3
:102CF0009F0789F381319F45B9F3C1E0E0CF80316F
:102D0000EFE59E07F9F281319F45C9F682E0DBCFFE
:102D10002FEFFC0120830895EF92FF920F931F93F2
:102D2000CF93DF93EC01062FE881E150E33108F007
:102D300055C0F0E0EB5FF84D0C944E26198289E007
:102D40008A83602FCE010E947C1FCDB7DEB7E6E0FC
:102D50000C9483268981823061F0833061F0813068
:102D6000C1F4BFD70E9454266A837B838C839D83E2
:102D7000E8CF70DFF7CF7E0182E0E80EF11C10E0B3
:102D8000812F22D9F70181937F011F5F1830C1F78E
:102D9000D8CF602FCE01BCDFD4CF89818230C9F774
:102DA0006A817B818C819D810E9454265DDFC9CF21
:102DB0004B816A818981BAD19827892798279D8379
:102DC0008C83BFCF2C813D813227232732274B8133
:102DD0006A818981CCD1B5CFE5D1B3CF8FEF88831C
:102DE000B0CF6CD28983ADCF6BD298278927982733
:102DF0009A838983A6CF6B8170E089819A81AE0125
:102E00004C5F5F4F9827892798275DD29ACF6B81B7
:102E100070E089819A81AE014C5F5F4F98278927C6
:102E2000982776D28ECF99D28CCF6ED1DBCF6B81A3
:102E300070E089819A81AE014C5F5F4F98278927A6
:102E40009827E7D17ECF6B8170E089819A81AE01AE
:102E50004C5F5F4F982789279827FFD172CF08953D
:102E6000FC01680F791F8FEF91E36E177F0709F45C
:102E700008952191822728E030E087FF06C0880F5F
:102E8000892721503109C9F7F0CF880FFACFCF93A6
:102E9000DF93EC01FB018281882309F433C1C33045
:102EA000FDE5DF07C0F5CA3F9CE5D90730F49E0178
:102EB00022503C4524313105B0F50E94640C9093BA
:102EC000B8028093B702C1318CE5D80709F4EEC08F
:102ED00008F069C0C930ECE5DE0709F4D5C0C8F5D3
:102EE000C5308CE5D80709F4C7C000F5C330ECE560
:102EF000DE0709F4B9C008F0BBC0C230DC4509F4F4
:102F0000ADC08091B7029091B8020E94720C0E94ED
:102F1000600780E008C0C136EDE5DE0771F2C53A12
:102F2000FDE5DF0751F2DF91CF9108958091B7025F
:102F30008062C7309CE5D90709F493C08091B7023D
:102F40008061C830DC4508F48CC08091B702806491
:102F500088C08091B7028B7FCD30FCE5DF0709F494
:102F600080C098F48091B7028E7FCB309CE5D90762
:102F700009F477C08091B7028C60CC30DC4508F44E
:102F800070C08091B7028D7F6CC08091B7028F7E38
:102F9000CF30FCE5DF0709F464C008F47BC0809102
:102FA000B7028F7D5EC0CD3F9CE5D90709F47AC09A
:102FB00050F5C531FCE5DF0709F486C098F480912F
:102FC000B702837FC3319CE5D90709F44AC008F4EE
:102FD00071C00E9460079091B702892F97FB87F913
:102FE00080583FC0CB3FFCE5DF0709F449C008F03B
:102FF00055C08091B8028160CA3FDC4509F081CF9D
:103000008093B8027ECFC130EDE5DE0709F468C0D9
:10301000A8F4CF3F8CE5D80709F452C08091B802DC
:103020008360C115DD4560F38091B802982F9095BB
:1030300091708E7F892B90FB81F9E2CFC136EDE54F
:10304000DE0709F451C0C53AFDE5DF0709F453C0B6
:10305000C230DD4509F055CF80E043C08091B70212
:1030600081608093B7024DCF8091B7028260F9CF23
:103070008091B7028460F5CF8091B7028860F1CF6C
:103080008091B8028260BCCF0E9460078091B70235
:103090008068E7CF8091B702877FE3CF8091B80245
:1030A0008E7FAECF8091B8028D7FAACF8091B7027C
:1030B0008F7BD7CF0E9460078091B7028F77D1CFE7
:1030C0008091B8028C7F9CCF8091B70282FB9927B8
:1030D00090F921E0922790FB82F990FB83F9C1CF10
:1030E00081E00E94F90C0DCF9091B702892F8F7E5D
:1030F00094FF8061B6CF9091B702892F8E7F90FFA9
:103100008160AFCF81E00FCF84E0089550E0440F9D
:10311000551F9CE0699F400D511D112490E6899F29
:10312000400D511D1124CA01879608950F931F93D6
:10313000CF93DF938430C0F46830B0F44630A0F40D
:10314000E5DF8C010E94BC26C82FD0E0DC2FCC2705
:10315000C80101960E94BC269E01282BC901DF915F
:10316000CF911F910F91089590E080E0F8CF0F93D9
:103170001F93CF93DF93122F032F843070F46830A6
:1031800060F4463050F4C2DFEC01602F0E94C92683
:10319000612FCE0101960E94C926DF91CF911F9128
:1031A0000F910895AF92BF92CF92DF92EF92FF926C
:1031B0001F93CF93DF938CEAC82E80E0D82ED0E007
:1031C0007601C0E013C0F50125913491412F6C2F99
:1031D0008D2FCDDF82E0A80EB11C1F5F163099F74E
:1031E0008CE0E80EF11CCF5FC83019F0570110E0F9
:1031F000EACFDF5F80E6C80ED11CD43009F7DF913B
:10320000CF911F91FF90EF90DF90CF90BF90AF9044
:103210000895EF92FF920F931F93CF93DF93EC01EA
:103220008A017C01E60EF71ECE018796CE15DF05DA
:1032300029F4CDB7DEB7E6E00C948326C03821E050
:10324000D20740F40E94BC26F80180830F5F1F4F15
:103250002196EACFF8011082F9CFB0E0A0E0E3E3D5
:10326000F9E10C9465267C016A018C01060F171F99
:10327000EC01CE018796C017D10729F4CDB7DEB790
:10328000E8E00C948126C03821E0D20740F4FE012A
:10329000EE19FF09EC0DFD1D60810E94C9262196E3
:1032A000E8CF462F843038F4783028F4663018F4AC
:1032B000672F3CCF089590E080E0089580E1089565
:1032C00089E592E00895EF92FF920F931F93CF93B9
:1032D000DF93EC018A017C01E60EF71ECE018955D1
:1032E0009E4FCE15DF0529F4CDB7DEB7E6E00C948E
:1032F0008326C93522E0D20740F40E94BC26F8019B
:1033000080830F5F1F4F2196E9CFF8011082F9CF1C
:10331000B0E0A0E0EEE8F9E10C9465267C016A01DA
:103320008C01060F171FEC01CE0189559E4FC01767
:10333000D10729F4CDB7DEB7E8E00C948126C93572
:1033400022E0D20740F4FE01EE19FF09EC0DFD1D4D
:1033500060810E94C9262196E7CFCF93DF93C7EA09
:10336000D1E060E0CE010E94C9262196C11584E01B
:10337000D807B9F7DF91CF910895A4E0B0E0E3EC6E
:10338000F9E10C946626F82E8FE08F1548F18FEF47
:1033900093E00E94BC26811123C007EA11E0F110DE
:1033A00023C019821A821B821C82DD24D3947801E7
:1033B0008FEFE81AF80AC8010E94BC2689831A8296
:1033C000882371F09FEF980F9330D8F48A83D982C5
:1033D0000E5F1F4FC7010E94BC268B83811112C054
:1033E0002496E7E00C948226011584E01807C1F3C7
:1033F000C8010E94BC26811101C0FA940F5F1F4FC3
:10340000CECF8701CE0101960E94FF03D0CFCF938C
:10341000DF93EB0186319C4511F50E94700B9A8178
:10342000992399F08A7A91E009F490E090938102CF
:10343000811109C089E20E94480B0E94AE0B80E016
:10344000DF91CF91089585E3F6CF809181028111BC
:1034500004C089E20E94500BF0CF85E3FBCF81E0EE
:10346000EFCF0F931F93CF93DF93C42FD22FFC0185
:1034700082818823C1F04093840227D490938302F1
:103480008093820280E28C0F883040F4C77081E024
:1034900001C0880FCA95EAF70E944C05DF91CF91D1
:1034A0001F910F91089510918402141331C08091DF
:1034B00082029091830221D48639910548F5C0E2B9
:1034C000CD0F1D17B9F080E2810F883040F41770DE
:1034D00081E001C0880F1A95EAF70E945105C830B3
:1034E00048F481E09D2F977001C0880F9A95EAF704
:1034F0000E944C05802F0E944405C83078F6D77092
:1035000081E001C0880FDA95EAF70E945105C6CF25
:1035100080E28C0F883010F6C77081E001C0880F00
:10352000CA95EAF7F2CF0F939C01CB01233F4CE5FC
:10353000340751F1A0F4283DFCE53F07F9F0293D9F
:103540004CE53407C9F1273D3C4589F406E221EEFC
:1035500041EE67ED7CE585DF80E00F910895253F22
:10356000FCE53F07E9F0B0F0263F3C45F9F0FC01EF
:103570008281882339F110928402EFCF07E225EE91
:1035800045EE68ED7CE5E7CF06E221EE40EE63EF25
:103590007CE5E1CF07E225EE44EE64EF7CE5DBCF8E
:1035A00006E221EE42EE65EF7CE5D5CF07E225EE9F
:1035B00046EE66EF7CE5CFCF08E221E045EE69ED0F
:1035C0007CE5C9CF81E0C9CF8EE14A9B02C0815022
:1035D000E1F74A9BFECF08955A9880E28A95F1F769
:1035E0005A9A0895FC013BE03A95F1F798E020E003
:1035F00080E031E040E14A95F1F7880F4A9B02C034
:103600008160232742E04A95F1F7000040E14A95A6
:10361000F1F7915079F790E19A95F1F799B132E08D
:103620003A95F1F7000040E14A95F1F792FB9927AE
:1036300090F992272081920F90830895A1E0B0E045
:10364000E4E2FBE10C94672619828C017C01E60E12
:10365000F11C0E151F0541F481E09981911180E064
:103660002196E6E00C948326AFDFCE010196BADF07
:10367000F80181938F01EDCF529A5A9A089552988A
:103680005A9AEA9AE9E6F0E080818F7C8083089577
:103690006150770B91E001C0990F6A95EAF720E03D
:1036A00031E0911108C0222391F05A9A80E28A9564
:1036B000F1F75A980895492F482339F05A9A232749
:1036C00040E24A95F1F79695ECCF5A98F9CF5A987F
:1036D000EDCFFF920F931F93CF93DF93EC018C01FB
:1036E000060F111DC017D10729F4CDB7DEB7E5E0ED
:1036F0000C948426F99070DF68E08F2DC9DFF2CF3B
:103700001F920F920FB60F9211240F931F932F93B6
:103710003F934F935F936F937F938F939F93AF9359
:10372000BF93EF93FF93CF93DF930F92CDB7DEB7A5
:1037300019824ADFCE01019655DF082F06950695BE
:103740000695282F22952570902F9570290F922F7E
:10375000937026952695920F982797708981982BBC
:1037600009F058C0043008F055C080E18A95F1F79F
:103770005A9A529A82E08A95F1F700C05A9888E0E6
:10378000089F80011124D801AD5FBE4F1696ED91C0
:10379000FC9117973097A9F060919C0170919D0161
:1037A00014962D913C911597260F371F11968D91E8
:1037B0009C911297680F791F13964C9113978C91D7
:1037C0000995F801ED5FFE4F6381662349F0209172
:1037D0009C0130919D0184819581820F931F79DF37
:1037E000FBDE80E18A95F1F75A9852985A9A80E167
:1037F0008A95F1F7F801ED5FFE4F6081662349F08D
:1038000020919C0130919D0181819281820F931FB3
:1038100015DFDADE0F90DF91CF91FF91EF91BF912D
:10382000AF919F918F917F916F915F914F913F9158
:103830002F911F910F910F900FBE0F901F90189511
:103840000F931F93CF93DF93EC0104970CF049C0C3
:10385000F894529A5A9885E08A95F1F700009C2FC7
:10386000969595708C2F8570980F892F83709695FB
:10387000969523E0CC0FDD1F2A95E1F7980F8E0176
:10388000092BAADE00C068E0802F02DF80E18A9564
:10389000F1F752985A9A4A9B1DC087E090E04A99E6
:1038A0001BC0FE01ED5FFE4F63816623F1F02091A6
:1038B0009C0130919D0184819581820F931FBEDE12
:1038C000811113C0529A5A9A7894DF91CF911F9127
:1038D0000F91089500C0DFCF019729F4529A5A9AA8
:1038E000789480E0F2CF00C0DACF6EDE80E28A9575
:1038F000F1F75A98529A80E18A95F1F7CD5FDE4F41
:103900006881662349F020919C0130919D01898155
:103910009A81820F931FDDDE5FDE789481E0D5CF40
:103920009093AF018093AE01089590938B028093A2
:103930008A0208950E948311811103C0809185023B
:103940000895E0918A02F0918B02309729F001905E
:10395000F081E02D0995089580E00895E0918A02B4
:10396000F0918B02309799F020912F01222359F08A
:103970002091B70227FF07C0DC012C9111962C93F0
:10398000119726E02C930280F381E02D099508958C
:10399000E0918A02F0918B02309739F022E0DC014D
:1039A0002C930480F581E02D0995089520918802DB
:1039B000309189022817390771F09093890280931A
:1039C0008802E0918A02F0918B02309721F0068004
:1039D000F781E02D099508952091860230918702A4
:1039E0002817390771F09093870280938602E0913F
:1039F0008A02F0918B02309721F00084F185E02D4E
:103A000009950895FC01329680912F01882321F0B9
:103A10008091B7029EE187FF96E080E0915008F424
:103A2000089521912223D1F38F5FF8CF662301F10E
:103A300020912F012223F1F02091B70227FF1AC015
:103A4000462F4695469546954E3190F4677021E095
:103A500030E002C0220F331F6A95E2F7840F911DF8
:103A6000FC01828190E02823392381E0232B69F433
:103A700080E00895FC01329608962191261721F0E6
:103A8000E817F907D1F7F4CF81E008959C01FC0114
:103A900032969FEF80E04191461751F09F3F19F415
:103AA000411101C0982F8F5F8630A9F79F3F09F41D
:103AB0000895290F311D97FD3A95F9016283089504
:103AC000FC01329608962191261303C0DF0111975D
:103AD0001C92E817F907B9F70895E62FE695E695E1
:103AE000E695EE3168F4E80FF92FF11D677021E0DB
:103AF00030E001C0220F6A95EAF78281822B82832F
:103B00000895E62FE695E695E695EE3170F4E80F18
:103B1000F92FF11D677021E030E001C0220F6A9596
:103B2000EAF72095828128232283089520912F018E
:103B3000222331F02091B70227FF02C0CECF089593
:103B4000A5CF089520912F01222331F02091B702B3
:103B500027FF02C0D6CF0895B3CF0895FC01329657
:103B600080912F01882351F08091B70287FF06C012
:103B70008EE1DF011D928A95E9F7089586E0F9CF7D
:103B800046E050E00E94A62621E0892B09F420E0BF
:103B9000822F08950895FECF0895811105C081E018
:103BA00080938C02F8CF089582E0FACF83E080936F
:103BB0008C02F1CF0895F1CF089581E080938C02BB
:103BC000EACF0895FACF089508950895FECF089595
:103BD00008950895F9CF0895CF93FADF0E9409114F
:103BE000F8DFC0E08C2F0E94E40F811105C0CF5F89
:103BF000C830C1F7CF91089581E0FCCF85B78068C8
:103C000085BF85B7806885BF08951F921FB61F9234
:103C100011248F939F93AF93BF9380918D02811155
:103C200013C08091CB029091CC02A091CD02B091B3
:103C3000CE024196A11DB11D8093CB029093CC0280
:103C4000A093CD02B093CE02BF91AF919F918F917F
:103C50001F901FBE1F9018958091D302843031F1C0
:103C60000E943E0310928D0288E190E020E40FB69E
:103C7000F894A895809360000FBE2093600083B7EE
:103C8000817F846083BF83B7816083BF7894889588
:103C900083B78E7F83BF0FB6F894A895809160009C
:103CA000886180936000109260000FBE08950E94AA
:103CB00060070C944203089582E084BD93E095BDB3
:103CC0009AEF97BD80936E0008952FB7F894809176
:103CD000CB029091CC02A091CD02B091CE022FBF29
:103CE00008952FB7F8946091CB027091CC02809127
:103CF000CD029091CE022FBF08959C014FB7F8944A
:103D00008091CB029091CC02A091CD02B091CE02D5
:103D10004FBF821B930B0895CF92DF92EF92FF92D9
:103D20002FB7F894C090CB02D090CC02E090CD0297
:103D3000F090CE022FBFA7019601261B370B480B30
:103D4000590BCA01B901FF90EF90DF90CF90089511
:103D500078941F921FB61F9211248F939F93AF9355
:103D6000BF938091CB029091CC02A091CD02B091F3
:103D7000CE020196A11DB11D8093CB029093CC027F
:103D8000A093CD02B093CE02BF91AF919F918F913E
:103D90001F901FBE1F90189587E797E79093010823
:103DA0008093000888E19AE00FB6F894A895809374
:103DB00060000FBE90936000FFCF88E19AE00FB6DD
:103DC000F894A895809360000FBE90936000FFCF99
:103DD0008091B102089508959C0184E08093E900E8
:103DE0009FEF8091E800915085FD06C085ED8A9592
:103DF000F1F700009111F5CF8091E80085FF0BC02D
:103E000050E040E066E070E0C9016CD28091E800CB
:103E10008E778093E8000895CF93DF93EC01809133
:103E20002F018823A9F18091B70287FF31C060E29A
:103E300084E08093E9008FEF9091E800815095FD38
:103E400006C095ED9A95F1F700008111F5CF8091AC
:103E5000E80085FF1AC080912F0170E050E040E03B
:103E6000811104C050E040E068E070E0CE013AD239
:103E70008091E8008E778093E80080E2FE01A1E95E
:103E8000B2E001900D928A95E1F7DF91CF9108950C
:103E900068E081E0CECF80938E02709390026093B1
:103EA0008F028091D3028430F1F48093E9008FEF88
:103EB0009091E800815095FD06C095ED9A95F1F737
:103EC00000008111F5CF8091E80085FF0CC050E023
:103ED00040E063E070E08EE892E004D28091E80078
:103EE0008E778093E8000895BC0184E0D4CF0895D4
:103EF000BC0183E0D0CF0895CF93FC01603219F567
:103F00008091D3028430F9F4C091E900CF70209100
:103F1000EC00922F917020FD90E8C92B82E08093F5
:103F2000E9008091E80080FF0BC050E040E060E2D3
:103F300070E0CF01D7D18091E8008E778093E800C0
:103F4000CF70C093E900CF9108958091D202811182
:103F500007C0A3D3FAD38091E20084608093E2008B
:103F600008951092D202089528CE08956091CF024C
:103F700081E0611101C080E019CE08959091D302D3
:103F800081E0943009F080E06091CF0214CE089572
:103F900042E061EC81E0FDD242E261EC84E0F9D2E2
:103FA00042E261EC82E0F5D242E260EC83E0F1D2E1
:103FB0009091D30281E0943009F080E06091CF02CB
:103FC000ECCD08958091D502833009F461C030F4BE
:103FD0008130D9F1823009F49CC008958A3009F407
:103FE00089C08B3009F46FC0893009F050C08091CE
:103FF000D402813209F04BC08091D8029091D9024D
:10400000009719F0029709F042C08091E800877F7D
:104010008093E8008091E80082FF35C09091F30022
:104020008091F200029731F48091F100813011F01B
:10403000863021F48091F1008093B1028091E800F4
:104040008B778093E800D9D222C08091D402813A44
:10405000F1F48091E800877F8093E8008091D80296
:104060009091D902892B59F460E281E992E070E0E5
:10407000D3D18091E8008B778093E800089560E0C9
:1040800090E080E0F4CF8091D3028111C3CF0895F6
:104090008091D402813AD9F78091D8029091D902C7
:1040A000892BA9F78091E800877F8093E8008091B1
:1040B000E80080FFFCCF80912F018093F100809178
:1040C000E8008E77BECF8091D402813201F78091D3
:1040D000D8029091D902892BD1F68091E800877F90
:1040E0008093E8008AD28091D60280932F010C94AD
:1040F000600708958091D402813249F68091E800EA
:10410000877F8093E80079D28091D7028093B202B2
:1041100008958091D402813A09F0B9CF8091E800E6
:10412000877F8093E8008091E80080FFFCCF80913A
:10413000B202C3CF84B7877F84BF0FB6F894A89527
:1041400080916000886180936000109260000FBED3
:1041500080E890E00FB6F89480936100909361003E
:104160000FBE30CD089599D2F0D2E2EEF0E080811A
:1041700084608083789454C5089583E291E0D5CB20
:1041800008958091D302853029F48091D30285303F
:1041900011F08DCD089560DD8091D1028823A9F3BF
:1041A0001BDD882391F388D00E946007EECFA0E248
:1041B000B0E0ECEDF0E28FC58091D302843001F5E0
:1041C00083E08093E9008091E80082FF19C080912C
:1041D000E80090E085FF08C050E040E060E270E059
:1041E000CE010196CCD091E08091E8008B7780934E
:1041F000E800992329F060E2CE0101960E948C1616
:10420000A096E2E084C501C00895292F332723300A
:10421000310521F168F42130310509F443C0223021
:10422000310509F444C090E080E030E020E026C091
:104230002132310551F122323105A9F76330710580
:1042400090F7FB01EE0FFF1FEF55FE4F20813181EC
:1042500062567E4FFB01808190E010C0992781302B
:10426000910581F0009729F00297E9F6ECEDF2E074
:1042700002C0E0E0F3E0849190E09F01FA01318315
:1042800020830895ECEEF2E0F6CF6330710558F626
:10429000660F771FFB01E955FE4F2081318189E0D0
:1042A00090E0ECCF82E190E02FE533E0E7CF8BE5C3
:1042B00090E024E033E0E2CF80E189BD82E189BD76
:1042C00009B400FEFDCF8091D8008F7D8093D80087
:1042D0008091E00082608093E0008091E00081FDA9
:1042E000FCCF0895AF92BF92CF92DF92FF920F93CF
:1042F0001F93CF93DF936C01EB018A019DD1F82EC0
:10430000811123C00115110539F0F80180819181D7
:10431000C81BD90BC80ED91EB12CA12C2097A9F00F
:104320008091E80085FD21C08091E8008E77809320
:10433000E80001151105A1F0F80180819181A80E16
:10434000B91EB182A08285E0F82E8F2DDF91CF912A
:104350001F910F91FF90DF90CF90BF90AF90089585
:104360006BD18823D9F2F82EF0CFF60181916F013D
:104370008093F1002197FFEFAF1ABF0ACFCFAF9222
:10438000BF92CF92DF92FF920F931F93CF93DF9351
:104390006C01EB018A0150D1F82E811123C0011567
:1043A000110539F0F80180819181C81BD90BC80E25
:1043B000D91EB12CA12C2097A9F08091E80085FD91
:1043C00021C08091E8008B778093E80001151105EA
:1043D000A1F0F80180819181A80EB91EB182A0825E
:1043E00085E0F82E8F2DDF91CF911F910F91FF90D7
:1043F000DF90CF90BF90AF9008951ED18823D9F25F
:10440000F82EF0CF8091F100F60181936F01219792
:10441000FFEFAF1ABF0ACFCFFC018091DA02909173
:10442000DB0286179707A0F06115710529F49091BA
:10443000E8009E779093E80090E06115710551F4D3
:10444000911108C08091E80082FF34C080E0089597
:10445000BC01F2CF8091D3028823C1F18530C1F134
:104460008091E80083FD30C08091E80082FDEACFB2
:104470008091E80080FFE1CF8091F3002091F2006D
:10448000382F6115710519F02830310558F091E089
:104490002830310509F090E02091E8002E77209334
:1044A000E800CBCF81918093F100615071092F5FBB
:1044B0003F4FE7CF8091D302882341F0853041F010
:1044C0008091E80083FFBECF81E0089582E00895E7
:1044D00083E00895FC018091DA029091DB02861757
:1044E0009707A0F06115710529F48091E8008E7797
:1044F0008093E80090E06115710551F4911108C0B6
:104500008091E80082FF35C080E00895BC01F2CFC1
:104510008091D3028823C9F18530C9F18091E800E8
:1045200083FD31C08091E80082FDEACF8091E800F0
:1045300080FFE1CF8091F3002091F200382F6115C8
:10454000710519F02830310558F091E02830310517
:1045500009F090E08091E8008E778093E800CBCF5F
:1045600084918093F1003196615071092F5F3F4F24
:10457000E6CF8091D302882341F0853041F08091CD
:10458000E80083FFBDCF81E0089582E0089583E0D5
:104590000895982F973028F08F708093E90081E07C
:1045A00008959093E900242F762F50E0981731F06A
:1045B0007091EC002091ED005091F00021FD02C0BF
:1045C0009F5FE8CF3091EB003E7F3093EB0030915E
:1045D000ED003D7F3093ED003091EB003160309382
:1045E000EB007093EC002093ED005093F0002091CD
:1045F000EE0027FDE5CF80E008958091D40287FF8B
:1046000013C08091E80082FF06C08091E8008B779C
:104610008093E80004C08091D3028111F2CF089505
:104620008091D3028823D9F38091E80080FFF8CFEE
:104630008091E8008E77ECCF2091E4003091E50086
:1046400095E6A9012091EC00822F817020FF06C021
:104650008091E80080FF06C080E008952091E80086
:1046600022FD1AC08091D302882389F0853089F019
:104670008091EB0085FD0FC02091E4003091E500B2
:1046800042175307F9F29150E1F684E0089582E071
:10469000089583E0089581E0089568D06FD0E0EE3A
:1046A000F0E0808181608083E8EDF0E080818F77A9
:1046B000808319BCA7EDB0E08C918E7F8C938081B4
:1046C0008F7E80831092D20208950F931F93CF9311
:1046D000DF934CD053D0C8EDD0E088818F778883AA
:1046E00088818068888388818F7D888319BC109237
:1046F000D3021092CF021092D1021092D00200EE9B
:1047000010E0F80180818B7F8083888181608883BD
:1047100042E060E080E03DDFE1EEF0E080818E7F0E
:104720008083E2EEF0E08081816080838081886018
:104730008083F80180818E7F808388818061888377
:10474000DF91CF911F910F910895E8EDF0E0808106
:104750008F7E8083E7EDF0E080818160808384E05C
:1047600082BF81E08093D202B0CF0895E8EDF0E0FF
:1047700080818E7F80831092E20008951092DA008B
:104780001092E10008951F920F920FB60F9211241C
:104790002F933F934F935F936F937F938F939F9349
:1047A000AF93BF93EF93FF938091E10082FF0AC024
:1047B0008091E20082FF06C08091E1008B7F8093B0
:1047C000E1002DD28091DA0080FF18C08091D800DE
:1047D00080FF14C08091DA008E7F8093DA00809190
:1047E000D90080FF91C080E189BD82E189BD09B413
:1047F00000FEFDCF81E08093D302A7DB8091E10032
:1048000080FF18C08091E20080FF14C08091E20018
:104810008E7F8093E2008091E20080618093E200CD
:104820008091D80080628093D80019BC85E0809385
:10483000D3029CDB8091E10084FF2AC08091E200DA
:1048400084FF26C080E189BD82E189BD89B5982FAA
:10485000917080FFFBCF8091D8008F7D8093D8002E
:104860008091E1008F7E8093E1008091E2008F7E55
:104870008093E2008091E20081608093E200809169
:10488000CF02882309F445C084E08093D30276DB0D
:104890008091E10083FF27C08091E20083FF23C065
:1048A0008091E100877F8093E10082E08093D302D2
:1048B0001092CF028091E1008E7F8093E100809181
:1048C000E2008E7F8093E2008091E200806180931D
:1048D000E20042E060E080E05CDE8091F000886011
:1048E0008093F00041DBFF91EF91BF91AF919F91D9
:1048F0008F917F916F915F914F913F912F910F9089
:104900000FBE0F901F90189519BC1092D30229DB8F
:1049100075CF8091E30087FD93E09093D302B7CFEA
:104920001F920F920FB60F9211242F933F934F9324
:104930005F936F937F938F939F93AF93BF93CF9327
:10494000DF93EF93FF93D091E900DF708091EC004B
:10495000C82FC17080FDC0E81092E9008091F0007E
:10496000877F8093F00078941ED01092E9008091A8
:10497000F00088608093F000CD2BCF70C093E900E9
:10498000FF91EF91DF91CF91BF91AF919F918F9167
:104990007F916F915F914F913F912F910F900FBE3B
:1049A0000F901F901895AAE2B0E0E8EDF4E292C1F2
:1049B00084ED92E02091F100FC012193CF01F2E01F
:1049C0008C3D9F07B9F7FEDA8091E80083FF16C19E
:1049D0008091D4029091D5029A3008F00FC1E92F4E
:1049E000F0E0E85EF84D5AC1803899F0823809F05D
:1049F00005C18091D8028F70873008F0FFC0809386
:104A0000E9008091EB0085FB882780F91092E9008E
:104A100006C08091D0029091D10291118260909154
:104A2000E800977F9093E8008093F1001092F100E6
:104A30008091E8008E77DFC0882309F4CDC08230F2
:104A400009F0DCC08091D6028111D0C08091D802DB
:104A50008F702FEF280F263008F0D0C08093E90028
:104A60002091EB0020FFC2C0933031F48091EB0025
:104A700080628093EB00BAC09091EB0090619093BC
:104A8000EB0021E030E001C0220F8A95EAF7209385
:104A9000EA001092EA008091EB008860EACF811171
:104AA000ADC01091D6021F778091E3008078812BF2
:104AB0008093E3008091E800877F8093E8009DDD8C
:104AC0008091E80080FFFCCF8091E30080688093B4
:104AD000E30082E0111183E08093D3028FC08058FD
:104AE000823008F08BC08091D6029091D7028C3D25
:104AF00023E0920799F583E08A838AE289834FB79E
:104B0000F894DE01139620E03EE051E2E32FF0E05E
:104B100050935700E49120FF03C0E295EF703F5F90
:104B2000EF708E2F90E0EA30B8F0C7968D939D938A
:104B30002F5F243159F74FBF8091E800877F809322
:104B4000E8006AE270E0CE01019666DC8091E80040
:104B50008B778093E80052C0C096E8CF6091D8026E
:104B60007091D902AE014F5F5F4F4DDBBC01892BC5
:104B700009F444C09091E800977F9093E800898100
:104B80009A81A8DCE3CF8038C9F58091E800877F5F
:104B90008093E8008091CF028093F10049CF81118A
:104BA0002DC09091D602923048F58091E800877F21
:104BB0008093E8009093CF0220DD8091CF0288237C
:104BC00011F084E005C08091E30087FDFACF81E019
:104BD0008093D302DDD912C08091D602813071F466
:104BE00081E0933009F080E08093D1021092E900D7
:104BF0008091E800877F8093E800FFDC8091E800E7
:104C000083FF0AC08091E800877F8093E80080914D
:104C1000EB0080628093EB00AA96E3E077C00895F2
:104C2000CF938091D302882399F0C091E900CF708F
:104C30009091EC00892F817090FD80E8C82B109234
:104C4000E9008091E80083FDAEDECF70C093E900FB
:104C5000CF91089522DD1092D3020895E8EDF0E09F
:104C60008081806180838AE18A95F1F700C080911C
:104C7000D9008170089597FB072E16F4009406D092
:104C800077FD08D04FD007FC05D03EF49095819574
:104C90009F4F0895709561957F4F0895EE0FFF1F08
:104CA0000590F491E02D09946927962769277827C4
:104CB0008727782708952F923F924F925F926F92A5
:104CC0007F928F929F92AF92BF92CF92DF92EF929C
:104CD000FF920F931F93CF93DF93CDB7DEB7CA1B1D
:104CE000DB0B0FB6F894DEBF0FBECDBF09942A8848
:104CF000398848885F846E847D848C849B84AA84F0
:104D0000B984C884DF80EE80FD800C811B81AA817C
:104D1000B981CE0FD11D0FB6F894DEBF0FBECDBF47
:104D2000ED010895AA1BBB1B51E107C0AA1FBB1FC1
:104D3000A617B70710F0A61BB70B881F991F5A9527
:104D4000A9F780959095BC01CD010895FB01DC0188
:104D500004C08D910190801921F441505040C8F752
:104D6000881B990B0895FB01DC0102C001900D9294
:104D700041505040D8F70895F999FECF92BD81BDBA
:104D8000F89A992780B50895A8E1B0E042E050E094
:104D900020C0262FF999FECF92BD81BDF89A0197C8
:104DA00000B4021639F01FBA20BD0FB6F894FA9A73
:104DB000F99A0FBE08950396272FECDFEADF252F1F
:104DC000E9DF242FE7CF0196272FE4DFE2CFDC01D4
:104DD000CB01FC01F999FECF06C0F2BDE1BDF89A06
:104DE000319600B40D9241505040B8F70895F894B0
:104DF000FFCF8E058E05B805B80533064F06E305CF
:104E0000E3055A06B906C506C5069E16AA16CD16AE
:104E1000D816E216EC16EE16EE16EE16EE16EE1696
:104E2000F116F416FB160717131715171717231784
:104E3000F4241C25FE251C25FE254F256F25FE2567
:044E4000C325CF2592
:104E44002002010000000100000000000000040135
:104E54000000000405000000000000280850011EA6
:104E64000A1401E81E0C1FEC1E781F741FEB1E01B0
:104E7400E200E900EA00B500B600B700CD00830106
:104E8400CC008A019201940121022302240225020A
:104E9400260227022A02B300B4006F007000818248
:104EA40083E200E900EA00B500B600B700CD008354
:104EB40001CC008A019201940121022302240225DB
:104EC40002260227022A02B300B4006F0070008198
:104ED4008283F4F5F6F73133946697C65B02402279
:0E4EE400B649047103930316032F034F030016
:00000001FF
