:10000000CBC10000E6C10000E4C100000C943D1823
:10001000E0C10000DEC10000DCC10000DAC1000068
:10002000D8C10000D6C100000C94D71F0C94A420A6
:100030000C94C21ACEC10000CCC10000CAC100009D
:10004000C8C10000C6C10000C4C10000C2C1000098
:10005000C0C100000C94651BBCC10000BAC1000007
:10006000B8C10000B6C10000B4C10000B2C10000B8
:10007000B0C10000AEC10000ACC10000AAC10000C8
:10008000A8C10000A6C10000A4C10000A2C10000D8
:10009000A0C100009EC100009CC100009AC10000E8
:1000A00098C1000096C1000094C100000000170034
:1000B000150008001A00140000000A0009000700DB
:1000C0001600040000000500190006001B001D00BA
:1000D0002C009000E0000000E100000000001C0087
:1000E00018000C001200130000000B000D000E00A1
:1000F0000F002D00000011001000360037003800FE
:1001000028009000E60000002A00000000002F00F8
:10011000150008001A00290000002200210020001C
:100120001F001E00000090001900E200E3002B00F9
:10013000010001000100000001000000000030008B
:100140003102330034003500000023002400250074
:1001500026002700000091005000520051004F007F
:1001600001000100010000004C000000000022021C
:10017000210220021F021E02000022002100200096
:100180001F001E000000310030002F002E00010073
:100190000100010001000000010000000000230236
:1001A0002402250226022702000023002400250045
:1001B000260027000000310235002E022F023002F7
:1001C00001000100010000002A0000000000000002
:1001D000000000000000000000000000000000001F
:1001E000000000000000000000000000000000000F
:1001F00001000100010000000100000000000000FB
:1002000000000000000000000000000000000000EE
:1002100000000000000000000000000000000100DD
:100220000100010001000000010000000E03620057
:10023000650061006E003300380000001203730097
:100240006F0075005F0061006F006D0069000000C5
:100250000403090409023B00020100A0FA0904009A
:1002600000010301010009211101000122400007E2
:1002700005810308000109040100010300000009D1
:10028000211101000122B60007058203200001129E
:1002900001000200000008415386810100010200B4
:1002A0000105010902A10185020901A10005091941
:1002B000012908150025019508750181020501092C
:1002C0003009311581257F95027508810609381599
:1002D00081257F950175088106050C0A3802158174
:1002E000257F950175088106C0C005010980A1011F
:1002F000850319012AB700150126B700950175106D
:100300008100C0050C0901A101850419012AA00280
:10031000150126A002950175108100C0050109068E
:10032000A1018506050719E029E7150025019508B3
:10033000750181020507190029EF1500250195F0C7
:1003400075018102050819012905950575019102BC
:10035000950175039101C005010906A10105071961
:10036000E029E715002501950875018102950175C1
:100370000881010507190029FF150026FF009506D1
:100380007508810005081901290595057501910277
:10039000950175039101C00011241FBECFEFDAE073
:1003A000DEBFCDBF11E0A0E0B1E0E8E3F6E402C0BB
:1003B00005900D92AE39B107D9F722E0AEE9B1E070
:1003C00001C01D92AE3DB207E1F70E94F6120C94F7
:1003D000042316CE81E0089581E00895FDCF0895AD
:1003E0000895FECF0895A5E0B0E0E9EFF1E00C94A8
:1003F000772249835A833091A10189819A813111F1
:1004000016C0662389F0222379F0DFD5182F682FD4
:1004100089819A81B8D569817A81812F0E94060EDF
:100420002596E3E00C949322BFD5182FF4CFCDD5B9
:1004300069817A81F3CFFC01262F4081518162814D
:1004400073818481D0CF089581E00895CF93DF93A5
:10045000EC0160E0F0DFBE01C4DFDF91CF910895D1
:100460000C945F0F08950C94620F08950895F1D3D2
:10047000FDDF2FEF84E39CE0215080409040E1F7C6
:1004800000C000000895F3DF0C94891B0895EFDF8E
:100490000C949A1B08950F931F93CF93DF938C01B5
:1004A00061E0C9DFEC01B80199DF811106C080E08D
:1004B000DF91CF911F910F910895B801CE010E9455
:1004C00050178823A1F3B801CE010E948715882315
:1004D00071F3B801CE010E94C416882341F3F801DC
:1004E0008281882361F0CB35FDE5DF07E9F050F428
:1004F000C115ECE5DE0781F0CF3DDC4579F0C801A0
:1005000069DFD6CFCD358DE5D80759F080F0C83AF0
:10051000DD45A9F7BCDFCBCFB6DFC9CF0E94680CA1
:10052000F9CF0E94B00BEBCF0E94B90BE8CF0E942D
:10053000BC0BE5CF0E94A31A14C0089515D00C94EB
:10054000A71A08950895FECF089581E00895FDCF7C
:1005500008950895CF93C82FF6DF8C2FF8DFCF9141
:10056000089580E0F7CF08950E945719F3CF0895BA
:100570000E9457199091A001981719F08093A0013B
:10058000E9CF0895ABE0B0E0E8ECF2E00C9478221B
:100590004F83588769877A878B8761110E94080B80
:1005A0001E821D8285E0FE013796DE0111960190C4
:1005B0000D928A95E1F78C819D81892B59F44981AF
:1005C0005A816B817C818D819E8151D72B96E2E08F
:1005D0000C94942289819A8189238F3F81F3CE01E3
:1005E000019632DF8111EBCFF1CFFC018081918147
:1005F00025C50895CF93C82F8823B9F08238B9F460
:100600000E94571981FD11C089E3BAD70E94260BB9
:100610002FEF81EE94E0215080409040E1F700C040
:10062000000089E3B5D70E94260BCF910895833847
:1006300099F40E94571980FDF8CF83E5A1D70E9455
:10064000260B2FEF81EE94E0215080409040E1F79F
:1006500000C0000083E5E6CF843891F40E9457196A
:1006600082FDE3CF87E48CD7F1D72FEF81EE94E0C2
:10067000215080409040E1F700C0000087E4D2CFD5
:100680008CEF8C0F813A78F46C2F8091000190915F
:1006900001010E94D319882319F08C2F79D7D6D75E
:1006A0008C2F6ED7C0CF80E28C0F883040F4C7709B
:1006B00081E001C0880FCA95EAF78DD7B4CFEBE58A
:1006C000EC0FE33040F4F0E0E25AFE4F808190E01E
:1006D0000E949319AACFE8E5EC0FE73150F4F0E05F
:1006E000EE0FFF1FE05DFE4F808191810E94A919EE
:1006F0009CCFCD3E08F499CF8C2F0E9475130E9499
:10070000401493CF882309F44CC0823859F40E94D6
:10071000571981FF46C089E333D798D789E338D783
:1007200095C70895833849F40E94571980FF39C04E
:1007300083E526D78BD783E5F2CF843849F40E942E
:10074000571982FF2EC087E41BD780D787E4E7CFF5
:100750009CEF980F913A18F390E2980F983048F474
:10076000877091E001C0990F8A95EAF7892F39D7F0
:10077000D7CF9BE5980F933028F490E080E00C945D
:100780009319089598E5980F973128F490E080E048
:100790000C94A91908958D3E20F00E94C7130C9463
:1007A000401408951F93CF93DF93182FEB0122DF9E
:1007B000209731F4812FA6DFDF91CF911F9108950B
:1007C0008FE99FE00197F1F700C000002197F0CF7B
:1007D00070E060E0893311F460E570E0E3CF0895E4
:1007E000882311F0F8D632C70895882311F0F9D67E
:1007F0002DC70895B0E0A0E0E0E0F4E00C94712291
:100800006C01D62FC72FFC011281F580F2949FE076
:10081000F922D7D6E82E8823A9F0E12E112391F0F2
:100820008C2F807F803421F080E28D0F8830C0F0E3
:100830008091BA0282FF14C082E065D7C2D691E0EF
:10084000E82EE926BC2EB2948FE0B822FBE0FB151F
:1008500008F45DC0EB2DF0E0EA5FFC4D0C946222E1
:10086000E12CF0CF0C2F0F70C07F11F00295007FAC
:10087000112381F0002349F080E28D0F883010F0C1
:10088000D11105C0802FA7D6E1D68D2F3AC0802F79
:10089000B2D6FACF8D2F36DF002309F438C080E2BC
:1008A0008D0F883010F0D11103C0802F9AD602C06E
:1008B000802FA7D6CBD62BC00C2F0F70C07FC03295
:1008C00011F00295007FDD2381F0D13009F452C090
:1008D000112309F45CC0FF2009F452C0F6018581A0
:1008E00080FFD3CF8F7085834BC08091BA0282FD89
:1008F00028C0112341F0002319F0802F6CD6A6D612
:1009000080E078DE04C080E0FDDE0111CECFEB2D6B
:10091000E850FF0B349718F40E9457191BDEEE20A5
:1009200059F04BD680FD08C0F601128240D639D26C
:10093000C60158D13CD656D2CDB7DEB7E9E00C940B
:100940008D22112369F0F11004C065D6802B48DF99
:10095000DECF21E0F212F9CF5ED6802B62D6D7CF60
:10096000F11004C06AD6802F40DFD1CF31E0F316FA
:1009700071F2F8CF112331F085E08F1508F4C7CF5D
:10098000802FE5CF94E09F1508F4C1CFECCFFF2076
:1009900051F3D93349F4FFEF27EE33E0F150204013
:1009A0003040E1F700C000008D2FACDEB0CF8C2FBF
:1009B00086958695837069F0813009F0A8CF8D2FD8
:1009C0009C2F9370111102C090E080E00E94A91941
:1009D0009ECF8D2F9C2F9370111102C090E080E06C
:1009E0000E94931994CF8D2F112329F00E94751323
:1009F0000E9440148CCF0E94C713FACF8C2F8370B3
:100A000009F03DC0111183CF4D2F42954695477097
:100A1000440F440F0D2F0F7010E030E020E0042E43
:100A200004C0000F111F221F331F0A94D2F760E089
:100A300070E0CB01D4FF0FC06FE070E080E090E089
:100A400004C0660F771F881F991F4A95D2F76095DB
:100A5000709580959095C695C695C370602B712B47
:100A6000822B932BC23039F040F4C13011F04CD1BD
:100A70004ECF38D14CCF5AD14ACF32D148CF8695BC
:100A8000112311F08C2F8170882309F440CF4D2F52
:100A9000429546954770440F440F0D2F0F7010E09C
:100AA00030E020E0042E04C0000F111F221F331F6E
:100AB0000A94D2F760E070E0CB01D4FF0FC06FE082
:100AC00070E080E090E004C0660F771F881F991FD8
:100AD0004A95D2F76095709580959095C695C69584
:100AE000C370602B712B822B932BC23039F040F4F2
:100AF000C13011F0CDD10BCFB9D109CFDBD107CFA8
:100B00002BD105CFCF70112321F08C2F4AD18D2FFF
:100B10001ECF8D2F6ADE8C2F65D1F9CED23F49F1E1
:100B200060F4D03FB9F0D13F81F0112309F441C006
:100B3000F110ABCE8C2F8F7120C0D33F01F1D43F89
:100B4000A1F78091BA0282FD22C08C2F8F711123F0
:100B500019F313C0112341F084E08F1508F4D7CEA8
:100B60008C2F8F7162D1D3CE95E09F1508F4CFCE34
:100B7000F7CF8C2F8F711111CFCF13D1C8CE112386
:100B800021F08C2F8F71F8D0C2CEF1D0C0CE1123BE
:100B900039F0CF718C2F05D163E08C2F9AD5B7CE69
:100BA00081E0B1D5E1E0EF1508F0B1CE82E0ABD540
:100BB000AECEF110EECE8C2F8F71AECF0F931F9370
:100BC000CF93DF93EC01688179818A8140D28C01D7
:100BD00083D185D0B801CE010DDEDF91CF911F9179
:100BE0000F910895CF93DF93EC018B819C81892B2A
:100BF00029F08881998189238F3F41F4DF91CF913A
:100C00000895CE01DBDFCE0121DCF8CFCE0143DC3D
:100C10008111F7CFD6D4882389F38A81882371F391
:100C20008091BA0282FFEACF82E06DD5E7CF90E0F3
:100C300080E00E94931990E080E00E94A919E8D416
:100C400005D50E945A140C9440140895A9D4EFCFEE
:100C50000895CED4FBCF089592959F70963091F071
:100C600058F4925F9F70923058F4803F19F030F43E
:100C7000883E30F481E008959A5FF4CF843FD1F349
:100C800080E00895883EB0F3813FD1F7F3CFFC01B7
:100C900080819181D3D1E0CF0895A5E0B0E0E3E574
:100CA000F6E00C9478222596E2E00C949422A6E0DB
:100CB000B0E0EDE5F6E00C9478222696E2E00C94A4
:100CC00094220895FECF0895FDDF6093C4017093D0
:100CD000C5018093C6019093C701A9CF08950895D7
:100CE000F3CF08950F931F930091C4011091C50194
:100CF0002091C6013091C701602B712B822B932B61
:100D0000E3DF1F910F9108950F931F930091C4018A
:100D10001091C5012091C6013091C7016023712354
:100D200082239323D1DF1F910F9108950F931F9377
:100D30000091C4011091C5012091C6013091C701F5
:100D40006027712782279327BFDF1F910F91089596
:100D5000B8CF0895FDCF0895FDDF6093C001709373
:100D6000C1018093C2019093C30161CF089560E0F7
:100D700070E0CB01F1CF08950F931F9341E050E055
:100D800060E070E08A019B0104C0000F111F221F68
:100D9000331F8A95D2F7C901B801DEDF1F910F9189
:100DA00008950F931F9341E050E060E070E004C0AD
:100DB000440F551F661F771F8A95D2F78091C00197
:100DC0009091C101A091C201B091C3018A019B0120
:100DD000082B192B2A2B3B2BC901B801BDDF1F9112
:100DE0000F9108950F931F9341E050E060E070E091
:100DF00004C0440F551F661F771F8A95D2F7CB0199
:100E0000BA0160957095809590950091C001109100
:100E1000C1012091C2013091C3016023712382235B
:100E200093239ADF1F910F9108950F931F9341E031
:100E300050E060E070E004C0440F551F661F771F4C
:100E40008A95D2F78091C0019091C101A091C20111
:100E5000B091C3018A019B01082719272A273B2744
:100E6000C901B80179DF1F910F9108950F931F9366
:100E70000091C0011091C1012091C2013091C301C4
:100E8000602B712B822B932B67DF1F910F9108959D
:100E90000F931F930091C0011091C1012091C201D5
:100EA0003091C301602371238223932355DF1F9167
:100EB0000F9108950F931F930091C0011091C101EC
:100EC0002091C2013091C3016027712782279327A7
:100ED00043DF1F910F9108950895262F277091E009
:100EE00001C0990F2A95EAF723E0769567952A9530
:100EF000E1F725E0269FF001279FF00D1124E40F74
:100F0000F51F50E040E0682F70E08191DF011197FC
:100F10009B01042E02C0369527950A94E2F72170B2
:100F200021952827292328272C934F5F5F4F453091
:100F3000510559F70895A82FA77023E09695879536
:100F40002A95E1F725E0289FF001299FF00D112453
:100F5000E60FF71F50E040E080E0219130E00A2EDC
:100F600002C0369527950A94E2F721703327042EA4
:100F700001C0220F0A94EAF7822B4F5F5F4F453082
:100F8000510559F70895262F983068F4863058F4A3
:100F9000682F70E086E0989F600D711D112442EA71
:100FA00051E0822F9ACF0895292F983060F486302F
:100FB00050F490E062EA71E036E0239F800D911DCD
:100FC0001124B9CF089580E00895B0E0A0E0EBEEE1
:100FD000F7E00C9471228C01C090C001D090C10147
:100FE000E090C201F090C3018091C4019091C501CD
:100FF000A091C601B091C701C82AD92AEA2AFB2AC2
:10100000CFE1D0E0BC2ED701C6010C2E04C0B695AE
:10101000A795979587950A94D2F780FD09C02197E7
:1010200088F7B12C8B2DCDB7DEB7E9E00C948D227B
:10103000B8018C2F06D6019791F3F4CFCF93DF93AD
:10104000EC01C3DFBE01FDD5DF91CF9108951F9361
:10105000CF93DF93EB019091A101992331F0CB0164
:10106000EDDFDF91CF911F910895882351F0CB01DF
:10107000ACDF182F682FCE0186DFBE01812FE1D5AE
:10108000F0CFCB0191DF182FF8CF1F93CF93DF93D1
:10109000C091C80116E08091C9018C1304C0DF9192
:1010A000CF911F910895D0E01C9FF0011D9FF00D7E
:1010B0001124E653FE4F4081518162817381848106
:1010C0009581F5DD2196C770E6CF4091FA015091E8
:1010D000FB016091FC017091FD018091FE019091F6
:1010E000FF01E5CD08951F93CF93DF938091FF011A
:1010F000807F09F047C08091FC01882309F442C039
:101100008091C801C091C9016091FA017091FB0101
:10111000A091FD01B091FE01D62FD72316E0C8178C
:1011200089F190E0109711F0DF3F19F40196877074
:10113000F6CF189F9001199F300D1124F901E65345
:10114000FE4F41814713F2CF40814613EFCF4281DA
:101150004111ECCF438154814A1B5B0B443651054E
:1011600028F78091FF018F7080618093FF01F90162
:10117000E153FE4F80818F70806180838AEF91E020
:1011800031DD83DFDF91CF911F910895A1E1B0E0C0
:10119000ECECF8E00C9470228C0185E0F801DE01A3
:1011A0001D9601900D928A95E1F7F801E2808AEF91
:1011B000C82E81E0D82E6091FD017091FE0161156D
:1011C000710509F43BC19091FA012091FB01892F2F
:1011D00082238F3F09F432C140815181A380B480C2
:1011E000F090FC01F501E61BF70BFF2009F4DCC0D1
:1011F0008091FF01382F307FE436F10508F09AC066
:10120000311169C0FE2C251314C0941312C0E110D3
:1012100010C08F7080618093FF0157DFC601E2DC50
:101220008091FF01F80185838F2D6196EAE00C948F
:101230008C22A114B10429F0842F85238F3F09F05B
:1012400013C180E0F82FF170DF2E80FF3AC080914B
:10125000C8012091C90136E0821314C04D875E8712
:101260008D859E85EBDE292F22952F702230F0F0A0
:10127000243018F59F70F1F0F8019581907FD1F43A
:10128000D12C1DC090E0389FF001399FF00D112442
:10129000E653FE4F6181651306C06081641303C08D
:1012A0006281E6120EC001968770D6CF9F7011F052
:1012B000882331F3805E883018F3C80193DCFD2C5D
:1012C000B3CFEE2009F4B0CF8091FF01816080930D
:1012D000FF01F12CA9CF251306C0941304C0F80117
:1012E000EE2009F47DC0C801D2DC882301F1EE2094
:1012F000F1F08091FF01803268F02091FA01309185
:10130000FB0138872F831986BB86AA868C87CE017E
:10131000079668DC86E0F801AAEFB1E001900D9233
:101320008A95E1F7E0DED1DEFF24F3947DCFC8019A
:1013300059DCFACF311110C07A2DB98AA88A6E2DE6
:101340008989ABDC8AEF91E04DDC86E0F6011192F1
:101350008A95E9F7BADEBDCF25130EC094130CC0F1
:10136000E1100AC0F8018583C8013CDC86E0F60183
:1013700011928A95E9F758CFC80189DC8823B9F220
:10138000EE20A9F28091FF01803208F4C3CF2091B2
:10139000FA013091FB013A8329831B82BD82AC8222
:1013A0008E83CE010196B5CFE436F10508F03AC040
:1013B000FE2CEE2009F4BBCF251328C0941326C0C1
:1013C0008091FF0180FD19C0982F907FB1F0F80146
:1013D0008583903F31F0982F907F905F8F70892B9D
:1013E0008583C801FFDB86E0F801AAEFB1E0019038
:1013F0000D928A95E1F769DE17CF86E0F801AAEF32
:10140000B1E001900D928A95E1F70ECFC8013FDC63
:10141000811180CF8091FF0181608093FF01C8011D
:10142000E1DB02CF7A2DB98AA88A6E2D898935DC55
:1014300086E0F60111928A95E9F7DDCFEE2009F4F6
:1014400076CFC80124DCF82E882309F470CF86E01B
:10145000F801AAEFB1E001900D928A95E1F78AEFC9
:1014600091E0C3D840DEC7CF81E08E25EBCEACE063
:10147000B0E0EDE3FAE00C9477224F835887698758
:101480007A878B879C87CE01079680DE882369F058
:101490008A859B85892B39F04F815885842F852338
:1014A0008F3F09F067C016E05BC086E0FE0137960B
:1014B000DE01119601900D928A95E1F78A859B8550
:1014C000892B89F38F81988589238F3F61F3209140
:1014D000C90130E0C9010196877099274091C80180
:1014E0004817190669F4B5DB1092C9011092C801BA
:1014F00086E0EAEFF1E0DF011D928A95E9F7D3CFAC
:1015000096E0929FD001939FB00D1124A653BE4F39
:10151000FE01319601900D929A95E1F78093C901F1
:10152000B4DDC1CF819FC001112486539E4F2EDEB2
:101530008823E1F0E091C8011E9FF0011124E653D9
:10154000FE4F408151816281738184819581AFDB3F
:101550008091C80190E00196877099278093C80117
:101560008091C8019091C9018913DCCF2C96E3E0EA
:101570000C94932269857A858B859C8598DB93CF23
:10158000682F80910001909101010C94531A0895E5
:10159000682F80910001909101010C945F1A0895C9
:1015A00080910001909101010C946B1A0895809133
:1015B00020028595859585950895809120028770F4
:1015C000089590912002977081E009F480E00895D9
:1015D00080914302089590914302892B80934302A6
:1015E0000895809590914302982390934302089523
:1015F00010924302089590914202892B80934202F7
:101600000895809590914202982390934202089504
:101610001092420208958091210208950895FECF0C
:1016200008959091BA0292FF07C0909121029817F5
:1016300019F080932102F3CF08958091210288232D
:1016400021F01092210280E0EACF0895CF93DF933A
:10165000E0910001F0910101809143028083E091CB
:101660000001F0910101808190914202892B8083D9
:1016700090912102992379F0E0910001F09101010C
:101680008081892B808380910001909101010E94CB
:10169000BF198111D2DFC0910001D091010140E258
:1016A00050E060E072E0CE010E94B322892B59F035
:1016B00080E2FE01A0E0B2E001900D928A95E1F790
:1016C000CE010E946B19DF91CF9108950895FECF4E
:1016D00008959091BA0292FF0FC098E0899F9001FF
:1016E0001124622B609320025CDB8091200285959F
:1016F00085958595ECCF089554CB089510922002DE
:1017000080E0E5CF08959091200280958923809311
:101710002002282F277081F4282F082E000C330B6D
:101720009217130649F09091BA0292FF05C0859571
:101730008595859557DBE2CF08959091BA0292FB8B
:10174000222720F9281759F080FB92F99093BA02CA
:101750008091B9029091BA0235D082E0D4CF089539
:101760008091BA0282FB882780F991E08927E5CF32
:10177000089581E0E2CF089580E0DFCF089590E002
:1017800080E00E94D12221E0883E9E4F09F020E0B7
:10179000822F089582E090E00C94C922089583E09E
:1017A00090E00C94C9220895CF9384E090E00E94C9
:1017B000C922C82F82E290E00E94C922982F8C2F64
:1017C000CF910895CF93C92F682F84E090E00E94B5
:1017D000D6226C2F82E290E00E94D622CF9108950B
:1017E000AB01BC018FE090E00C94E8220895AB01BE
:1017F000BC0183E190E00C94E822089560E070E081
:10180000CB01F5CF089560E070E0CB01E9DFF6CFC2
:10181000089568EE7EEF90E080E00E94F02260E0A4
:1018200082E090E00E94D62260E083E090E00E9497
:10183000D6221092C4011092C5011092C6011092D6
:10184000C70160E084E090E00E94D62264E082E27A
:1018500090E00E94D62260E085E090E00E94D622CF
:1018600060E086E090E00E94D6226FEF87E090E093
:101870000E94D62240E050E0BA0188E090E00E9449
:10188000E82260E08DE090E00E94D62240E050E047
:10189000BA0188E190E00E94E82260E087E190E0F0
:1018A0000E94D62240E050E0BA018CE190E00E9414
:1018B000E82270E060E080E290E00E94F02240E0E8
:1018C00050E0BA0188E190E00E94E8229CCF0895A0
:1018D000A0CF0895682F8EE090E00C94D622089552
:1018E0000E942E1B6093500270935102809352020B
:1018F0009093530260934C0270934D0280934E027A
:1019000090934F02089508950895FECF0895089585
:10191000FECF08958CE39FE00E944D19F4DFF5CFD0
:10192000089571C4089508950895FDDFFDCF0895C9
:10193000A6D20C94A90208950E94191B5FD27DD4EF
:10194000C7D3F6DF0E946F157FD4E2CF0895AAE0D7
:10195000B0E0EDEAFCE00C946F22DBD3C82E8111DD
:10196000BFDF84E4A82E82E0B82E10E000E0902EC5
:10197000802FAAD2E82EF501F1905F01F816A9F1A7
:101980008091540281FDA6D28F2D8E25D12CFF246B
:10199000F394982F9F2121F1C4DF882399F0DE82F0
:1019A0009F82EF2081E009F480E088870E94221B5B
:1019B0008160782F9A8789874E815F8168858A85C3
:1019C0000E94C202F801EC5BFD4F8081F826F08294
:1019D00081E0C11001C080E02A96EBE00C948B22DC
:1019E000D394FF0CF6E0DF12D4CF0F5F1F4F083007
:1019F000110509F0BCCF8FEF89838A831B820E9477
:101A0000221B8160782F9D838C8349815A816B8151
:101A10008D810E94C202DCCF9ADFF5D36DD70C9482
:101A2000B8020895CF93DF930FD1EC01811521E522
:101A3000920708F042C0811530E5930708F09BC07B
:101A4000883E910530F5803E910508F090C0883AB7
:101A5000910588F4853A910508F082C0813091059E
:101A600009F485C0009709F482C0049708F07FC08C
:101A7000D0E0C0E07CC08F3B9105D0F7C85AD0E0E1
:101A8000CC0FDD1FCF59DE4F0990D881C02DD46413
:101A90006EC08115904250F4C11581E0D80708F05E
:101AA00066C0CD3ED10520F3D06561C0C11590E47C
:101AB000D907F0F2DF70D06A5AC0811525E5920788
:101AC00000F5811534E5930708F089C0811543E5D9
:101AD000940708F071C0C11582E5D80708F467C003
:101AE000CE018370992721E030E002C0220F331F1E
:101AF0008A95E2F7C695C69580E2C89FE001112459
:101B000052C0C11599E5D907A0F4C11528E5D2073F
:101B100008F06AC0C11536E5D30708F0A9CF8C2FAD
:101B20002AD1C82FD0E0DC2FCC27CC27DF71D062A0
:101B30001EC0C1154AE5D40708F45BC0CE0190561B
:101B40008115904208F094CF8D2F8F7114D190E0C1
:101B5000982F882788279F719C012C2BE901E7CFBC
:101B6000C55AD0E0C157DE4FC881D0E0D064CE0165
:101B7000DF91CF910895E4E096958795EA95E1F796
:101B800083702C2F26952695237040E2249F900188
:101B90001124382B8C2F8370C1E0D0E002C0CC0F11
:101BA000DD1F8A95E2F7C22BD32BDC68E0CFDC2F58
:101BB000CC27C16FD06ADBCF8370992721E030E05A
:101BC00002C0220F331F8A95E2F7C695C69590E2B0
:101BD000C99FE0011124C22BD32BDA68C8CFD82FBC
:101BE000CC27C46FD06AC3CFDC2FCC27C06FD06A9C
:101BF000BECF8C2F8F70BFD034E0D695C7953A9565
:101C0000E1F7CF709C2FEC01D069B1CF972F7830DE
:101C1000A8F4663098F470E026E0929F600D711D84
:101C20001124FB0190E3899FE00DF11D1124EE0FBB
:101C3000FF1FE455FF4F85919491089580E090E057
:101C40000895E4DFEFCE089582389105B1F1B0F444
:101C50008133910509F475C048F48932910509F47E
:101C600069C08A32910509F473C0089585339105DE
:101C700009F459C08933910501F10895833E910516
:101C8000A9F138F4803E9105F9F0823E910549F1C1
:101C90000895863E9105A9F1873E9105C9F1843EDC
:101CA000910519F52091BA0221FF1FC08091B90258
:101CB00084FD14C087EE90E008952091B90223704E
:101CC000A1F080EE90E008952091B90220FD47C078
:101CD0003091BA0230FF09C024FF44C090E080E098
:101CE00004C02091B90222FDF7CF08952091B902D6
:101CF00022FD3BC03091BA0230FDE3CF24FFF5CF87
:101D0000EDCF2091B90223FFF0CF24FDE7CFD2CF52
:101D10002091B90223FD2CC03091BA0231FFEECFE1
:101D200084EE90E008952091B90225FFDECF89E28C
:101D300090E008952091B90225FFD7CF85E390E088
:101D400008952091B90226FFD0CF8AE290E008954D
:101D50002091B90226FFC9CF81E390E0089589E37D
:101D600090E0089583EE90E0089582EE90E008956B
:101D700086EE90E008959091B90292FF06C0282F58
:101D800028712830F9F4877F846093FF06C0282FDC
:101D900028712831F1F4877E84612091BA0220FFF6
:101DA00006C0382F38713830D9F4877F816021FF21
:101DB00006C0282F28712831D1F4877E816194FDD7
:101DC000877E0895282F24712430F9F68B7F886050
:101DD000DCCF282F2471243101F78B7E8861DDCF81
:101DE000382F3171313019F78E7F8860E0CF282F7E
:101DF0002171213121F78E7E8861E1CF1092B502E9
:101E00001092B6021092B7021092B8020895CF92C3
:101E1000DF92EF92FF926B017C01F5D181110EC030
:101E20000E942E1BC61AD70AE80AF90AC092B50208
:101E3000D092B602E092B702F092B802FF90EF9013
:101E4000DF90CF9008950F931F93DDD1882329F061
:101E50000E942E1B1F910F9108950E942E1B00912E
:101E6000B5021091B6022091B7023091B802600F0E
:101E7000711F821F931FEECF80E0089508957FDCCD
:101E8000811101C025DD86DC809354028DDC9093A6
:101E9000BA028093B902F2DF82DC682F70E090E032
:101EA00080E00E9470066091C0017091C101809134
:101EB000C2019091C3010C94AA0608950895FECF23
:101EC00008950895FECF0895E82FF0E0EC53FD4FFC
:101ED00080810895089580EA8A95F1F7089500C0F9
:101EE0000895F9CF08950895FECF0895EF92FF92D7
:101EF0001F93CF93DF9300D000D0CDB7DEB783D14F
:101F0000182F6091CC02882309F446C019821A82E6
:101F10001B821C82862F90E09E012F5F3F4F79012C
:101F2000B9018C539D4F9CD18823E9F08091BB026D
:101F300090E044E050E0B7018C539D4F0E94B322E3
:101F400021E020935502892BC9F410E00E9433024E
:101F5000812F0F900F900F900F90DF91CF911F91D5
:101F6000FF90EF90089580915502882371F384E0EB
:101F7000F70111928A95E9F710925502E091BB02A0
:101F8000F0E0EC53FD4F89819A81AB81BC81808365
:101F90009183A283B383DACF70E06C537D4F80913D
:101FA000BB0290E08C539D4FDDD19EDFD1CFF894E2
:101FB000E82FE295EF70F0E031A1282F2F7081E03B
:101FC00090E001C0880F2A95EAF7982F9095932307
:101FD00091A392A1892B82A378940895CF93DF9344
:101FE000C2E9D1E089918F3F09F0E1DF81E0C83992
:101FF000D807C1F784E9DBDF86E6D9DF87E9D7DFD9
:1020000086ECD5DFDF91CF910895B0E0A0E0EBE062
:10201000F0E10C9472227C01162F042FC62FD0E021
:10202000CE56DE4F28812F3F09F449C0F894E22FA5
:10203000E295EF70F0E031A12F7081E090E001C0F7
:10204000880F2A95EAF7932F982B91A392A1809558
:10205000892382A3789443DF88E9C82E81E0D82EB3
:10206000F701A7014C5F5F4FF12CE02EE094D60101
:102070009D916D0181919F01215031099F3F21F177
:10208000692F62956F7070E0DB0190966C9170E043
:102090009F7002C0759567959A95E2F760FD14C030
:1020A000802BD9018C93FF24F394E417F507F9F6FC
:1020B00088818F3F09F07BDF6F2D812F12DFCDB735
:1020C000DEB7E8E00C948E228E21D9018C93EDCFFF
:1020D000809102018091020194E0811190E090933F
:1020E000CC0284E0891B8093BB0278DF88E0E4ECBB
:1020F000F2E0DF01982F1D929A95E9F7ECEBF2E000
:10210000DF011D928A95E9F784E047D00C943002F4
:102110000895A8E0B0E0EFE8F0E10C9474228E019D
:102120000F5F1F4F88E0F80111928A95E9F7F12CB3
:10213000EE24E3944E2D6F2DC80167DFF394EE0C6F
:10214000F6E0FF12F7CF48E050E0B8018CEB92E0E8
:102150000E94B3227C0121E0892B09F420E0E114E4
:10216000F10441F088E0F801ACEBB2E001900D928F
:102170008A95E1F76091CC0270E06C537D4F44E0AA
:102180008CEB92E00BD081E090E0E114F10409F4D3
:10219000ADDE2896E6E00C9490220895FF920F930E
:1021A0001F93CF93DF93F82E092F162FD72FC42F0D
:1021B000222349F081E0809358020E94221B9093D1
:1021C000570280935602809158028823A1F0809193
:1021D0005602909157020E943A1B059760F0EF2D2E
:1021E000F02FA12FBD2FCE0FDF2FD11DEC17FD0734
:1021F00039F410925802CDB7DEB7E5E00C94912285
:1022000081918D93F3CF80915B02811107C00E9471
:102210004222882351F081E080935B0281E090911B
:102220005B02913009F080E0089582E080935B02C8
:102230000E943E22F3CFE7CF0895FDDF8093020195
:10224000E2DF811142C00895DEDF811101C03FC08D
:10225000089581E090915C029A3008F080E0089542
:102260000F931F93CF93DF93EC018B0180915C025E
:102270008A30B0F4B801CE0173D0C82F811122C0CA
:1022800080915C028F3FB9F40E94221B90935A0206
:10229000809359028C2FDF91CF911F910F91089558
:1022A0008091590290915A020E943A1B843F9140BA
:1022B00008F7C0E0EFCF8F5F80935C028A3020F791
:1022C000C1E0E8CF10925C02E5CF93C6089594C6B2
:1022D0000895B0E0A0E0EFE6F1E10C9473227901FB
:1022E000C82F880FDD0B41155105A9F0FE0193E0C1
:1022F000EE0FFF1F9A95E1F7ED5FFE4F818192810E
:10230000835A9D4F208130E04217530708F49A0109
:10231000A9010E94C022CE0150D7D82E8823D1F027
:1023200001151105B9F083E0CC0FDD1F8A95E1F7A7
:10233000FE01ED5FFE4F438150E00417150708F4DE
:10234000A801CD5FDE4F6C817D81635A7D4FC7014F
:102350000E94C0228D2DCDB7DEB7E7E00C948F220E
:10236000F0C0089503C10895A4E0B0E0EAEBF1E104
:102370000C947622609172027091730280917402C3
:10238000909175020E94491B11E064367105810528
:10239000910508F158DD6E5F7F4F8F4F9F4F698326
:1023A0007A838B839C8310E000E030E020E044E0FF
:1023B00050E0BE016F5F7F4F82E08BDF182F8823D4
:1023C00051F00E942E1B60937202709373028093EF
:1023D000740290937502812F2496E4E00C9492226B
:1023E000B0E0A0E0E6EFF1E10C9470227C015B012B
:1023F0006A012FDF01E010E0882311F00AE010E00D
:10240000C1E0D0E0B501C701F6010995811104C012
:1024100021960C171D072CF4CDB7DEB7EAE00C941B
:102420008C22CC9F9001CD9F300D300D112490E077
:1024300080E045E34A95F1F7000001968217930783
:10244000C1F7E0CFA5E0B0E0E8E2F2E10C94702241
:102450005B01E0909C01F0909D0101E010E09E0185
:102460002B5F3F4F50E040E070E060E080E031DF04
:10247000182F882309F448C067018FEFC81AD80ABB
:1024800060916E0270916F02809170029091710262
:102490000E94491B643671058105910570F104E0C5
:1024A00010E09E012F5F3F4F50E040E070E060E0A1
:1024B00081E00FDFF82E64E070E0C60111D311E077
:1024C0009D81981310E01F2151F10E942E1B6093F3
:1024D0006E0270936F0280937002909371028981F3
:1024E0009A81AB81BC8180936A0290936B02A09326
:1024F0006C02B0936D0211E012C064E070E0C6019E
:10250000EFD29D818913CBCFF70181819281A38185
:10251000B48189839A83AB83BC831111E0CF80910E
:102520006A0290916B02A0916C02B0916D02F5016C
:1025300080839183A283B383812F2596EAE00C9454
:102540008C220F931F93CF93DF93EC018B0142E218
:1025500052E146DF882329F044EB51E1B801CE0176
:102560003FDFDF91CF911F910F9108950F931F933C
:10257000CF93DF93C0919C01D0919D01CE01019634
:1025800024E0FB01DC0101900D922A95E1F764E063
:1025900070E0A6D288836D817E818F8198850091BD
:1025A00066021091670220916802309169026017FB
:1025B00071078207930749F0609366027093670280
:1025C000809368029093690222DCDF91CF911F9182
:1025D0000F9108950E943E1DAFD90C94481D089597
:1025E0000E944C1D19DA0C94621D0895C4D70E94F4
:1025F000251D90D9EFDFF4DF98D9FDCF80917C02C3
:1026000080FF0DC06091200170E0660F771F603879
:10261000710570F56115710569F1862F089581FFC7
:1026200007C06091200184E0689FB0011124EFCFC2
:102630006091200182FD0AC080917B028823A9F06D
:1026400020911F0160912001821710F088E0ECCFEB
:10265000869FC001112433E0880F991F3A95E1F756
:10266000622F70E00E944F22D2CF68E070E0D5CF99
:102670008FE7089581E0089580917C0280FF0CC06F
:1026800060911C0170E0759567957595679561156A
:10269000710549F1862F089581FF06C060911C01E4
:1026A00070E075956795F3CF60911C0182FD0BC0BA
:1026B00090917A029923A1F060911B0180911C01F5
:1026C000961738F0682F70E06038710500F38FE7D7
:1026D0000895899FC001112470E00E944F22F4CF19
:1026E00061E070E0D7CF81E008958D3E29F486DF68
:1026F00081958093800208958E3E11F47FDFF9CF9B
:102700008F3E29F47BDF819580937F020895803F7F
:1027100011F474DFF9CF893F21F4AEDF8093810299
:1027200008958A3F19F4A8DF8195F8CF8B3F29F4EB
:10273000A3DF81958093820208958C3F11F49CDF82
:10274000F9CF9FE0980F983070F4815F990B21E0EA
:1027500030E001C0220F8A95EAF780917E02822B39
:1027600080937E0208958D3F31F480917C028160D8
:1027700080937C0208958E3F21F480917C028260D8
:10278000F7CF8F3FB9F780917C028460F1CF409101
:102790007F028D3E59F48091800287FF0DC0109218
:1027A000800241110BC010927B0208C08E3E81F462
:1027B0008091800218169CF3442381F0809181025D
:1027C00090918202892B09F05AC010927A020895E2
:1027D0008F3E49F447FFF0CF10927F028091800234
:1027E0008111ECCFE0CF803F19F41416ACF3E4CFA5
:1027F00090918102893F29F41916F4F61092810212
:10280000DBCF8A3F19F497FFD7CFF8CF90918202A0
:102810008B3F29F497FFD0CF10928202CDCF8C3F0F
:1028200019F41916CCF3C8CF9FE0980F983090F4A4
:10283000815F990B21E030E0B90102C0660F771F7C
:102840008A95E2F7CB01809590917E02892380934F
:102850007E02B2CF8D3F31F480917C028E7F8093D7
:102860007C02AACF8E3F21F480917C028D7FF7CF2E
:102870008F3F09F0A1CF80917C028B7FF0CF08952C
:10288000E1D69C0190917F0280918002982B21F0EB
:102890003093790220937802909181028091820294
:1028A000982B21F030937702209376028DE792E007
:1028B0002CC5089586E0EDE7F2E0DF011D928A95D0
:1028C000E9F710927B0210927A0210927C0208952E
:1028D000FC01828181110EC0838181110BC0848132
:1028E000811108C091E08581811101C090E0892F9C
:1028F0008170089581E0FCCFA6E0B0E0E2E8F4E169
:102900000C94772286E0EDE7F2E0DE01119601906B
:102910000D928A95E1F710927F0210928002109238
:102920008102109282028B819C81892B81F080919F
:102930007802909179029ED6AC0190917B02992306
:10294000A9F1809121018417150608F43CC08D81FE
:102950009E81892B89F080917602909177028AD6A8
:10296000AC0190917A02992309F46CC080911D0109
:102970008417150608F474C0BE016F5F7F4F8DE7A2
:1029800092E0BBD5811104C08DE792E0A1DF8111F7
:1029900077DF86E0FE013196ADE7B2E001900D925F
:1029A0008A95E1F72696E3E00C9493222091220188
:1029B0008AE0289F900111242417350740F69F5F75
:1029C00090937B0202C09F3FD1F71B81112351F0EE
:1029D00015DE9FEF11160CF491E0899F802D1124D4
:1029E00080937F021C81112351F008DE9FEF1116A6
:1029F0000CF491E0899F802D112480938002309106
:102A00007F02332309F4A3CF20918002222309F40B
:102A10009ECF45EB3403C0011124992359F09093C4
:102A20007F0245EB240390011124332339F03093C6
:102A300080028DCF81E080937F02F3CF81E080938D
:102A4000800285CF20911E018AE0289F90011124E9
:102A50002417350708F090CF9F5F90937A0202C049
:102A60009F3FD1F71D81112351F006DE9FEF111614
:102A70000CF491E0899F802D1124809381021E81A6
:102A8000112351F0F9DD9FEF11160CF491E0899FAD
:102A9000802D11248093820230918102332309F426
:102AA0006BCF20918202222309F466CF45EB3403D9
:102AB000C0011124992359F09093810245EB24031E
:102AC00090011124332339F03093820255CF81E0F5
:102AD00080938102F3CF81E0809382024DCF0895ED
:102AE000FC01680F791F8FEF91E36E177F0709F4E0
:102AF00008952191822728E030E087FF06C0880FE3
:102B0000892721503109C9F7F0CF880FFACFCF9329
:102B1000DF93EC01FB018281882309F433C1C430C7
:102B2000FDE5DF07C0F5CB3F9CE5D90730F49E01FA
:102B300022503C4524313105B0F50E94D40B9093CE
:102B4000BA028093B902C1318CE5D80709F4EEC00E
:102B500008F069C0C930ECE5DE0709F4D5C0C8F556
:102B6000C5308CE5D80709F4C7C000F5C330ECE5E3
:102B7000DE0709F4B9C008F0BBC0C230DC4509F477
:102B8000ADC08091B9029091BA020E94E20B0E94FE
:102B9000290680E008C0C236EDE5DE0771F2C63ACC
:102BA000FDE5DF0751F2DF91CF9108958091B902E1
:102BB0008062C7309CE5D90709F493C08091B902BF
:102BC0008061C830DC4508F48CC08091B902806413
:102BD00088C08091B9028B7FCD30FCE5DF0709F416
:102BE00080C098F48091B9028E7FCB309CE5D907E4
:102BF00009F477C08091B9028C60CC30DC4508F4D0
:102C000070C08091B9028D7F6CC08091B9028F7EB7
:102C1000CF30FCE5DF0709F464C008F47BC0809185
:102C2000B9028F7D5EC0CE3F9CE5D90709F47AC01A
:102C300050F5C531FCE5DF0709F486C098F48091B2
:102C4000B902837FC3319CE5D90709F44AC008F46F
:102C500071C00E9429069091B902892F97FB87F9CC
:102C600080583FC0CC3FFCE5DF0709F449C008F0BD
:102C700055C08091BA028160CB3FDC4509F081CF1D
:102C80008093BA027ECFC230EDE5DE0709F468C05A
:102C9000A8F4C1158DE5D80709F452C08091BA0295
:102CA0008360C130DD4560F38091BA02982F909522
:102CB00091708E7F892B90FB81F9E2CFC236EDE5D2
:102CC000DE0709F451C0C63AFDE5DF0709F453C039
:102CD000C330DD4509F055CF80E043C08091B90293
:102CE00081608093B9024DCF8091B9028260F9CFA3
:102CF0008091B9028460F5CF8091B9028860F1CFEC
:102D00008091BA028260BCCF0E9429068091B902EC
:102D10008068E7CF8091B902877FE3CF8091BA02C4
:102D20008E7FAECF8091BA028D7FAACF8091B902FB
:102D30008F7BD7CF0E9429068091B9028F77D1CFA0
:102D40008091BA028C7F9CCF8091B90282FB992737
:102D500090F921E0922790FB82F990FB83F9C1CF93
:102D600081E00E946A0C0DCF9091B902892F8F7E6D
:102D700094FF8061B6CF9091B902892F8E7F90FF2A
:102D80008160AFCF81E00FCFCF93DF93EB0186312E
:102D90009C4511F50E94E80A9A81992399F08A7A54
:102DA00091E009F490E090938302811109C089E2D7
:102DB0000E94C00A0E94260B80E0DF91CF91089507
:102DC00085E3F6CF80918302811104C089E20E94DD
:102DD000C80AF0CF85E3FBCF81E0EFCF0F931F93BD
:102DE000CF93DF93C42FD22FFC0182818823C1F0BF
:102DF0004093860227D4909385028093840280E2D8
:102E00008C0F883040F4C77081E001C0880FCA95EC
:102E1000EAF70E94F003DF91CF911F910F9108957F
:102E200010918602141331C0809184029091850222
:102E300021D48436910548F5C0E2CD0F1D17B9F0B5
:102E400080E2810F883040F4177081E001C0880F64
:102E50001A95EAF70E94F503C83048F481E09D2FE7
:102E6000977001C0880F9A95EAF70E94F003802FAF
:102E70000E94E803C83078F6D77081E001C0880F5F
:102E8000DA95EAF70E94F503C6CF80E28C0F88300E
:102E900010F6C77081E001C0880FCA95EAF7F2CF3B
:102EA0000F939C01CB01243F4CE5340751F1A0F472
:102EB000293DFCE53F07F9F02A3D4CE53407C9F10F
:102EC000283D3C4589F406E221EE41EE68ED7CE5C3
:102ED00085DF80E00F910895263FFCE53F07E9F08C
:102EE000B0F0273F3C45F9F0FC018281882339F19D
:102EF00010928602EFCF07E225EE45EE69ED7CE504
:102F0000E7CF06E221EE40EE64EF7CE5E1CF07E299
:102F100025EE44EE65EF7CE5DBCF06E221EE42EEE6
:102F200066EF7CE5D5CF07E225EE46EE67EF7CE560
:102F3000CFCF08E221E045EE6AED7CE5C9CF81E024
:102F4000C9CF8EE14A9B02C08150E1F74A9BFECF78
:102F500008955A9880E28A95F1F75A9A0895FC01EB
:102F60003BE03A95F1F798E020E080E031E040E185
:102F70004A95F1F7880F4A9B02C08160232742E0FF
:102F80004A95F1F7000040E14A95F1F7915079F741
:102F900090E19A95F1F799B132E03A95F1F7000096
:102FA00040E14A95F1F792FB992790F99227208109
:102FB000920F90830895A1E0B0E0E1EEF7E10C9468
:102FC000742219828C017C01E60EF11C0E151F057E
:102FD00041F481E09981911180E02196E6E00C9422
:102FE0009022AFDFCE010196BADFF80181938F0105
:102FF000EDCF529A5A9A089552985A9AEA9AE9E667
:10300000F0E080818F7C808308956150770B91E0A0
:1030100001C0990F6A95EAF720E031E0911108C0EC
:10302000222391F05A9A80E28A95F1F75A980895EE
:10303000492F482339F05A9A232740E24A95F1F75D
:103040009695ECCF5A98F9CF5A98EDCFFF920F93FF
:103050001F93CF93DF93EC018C01060F111DC01756
:10306000D10729F4CDB7DEB7E5E00C949122F990B1
:1030700070DF68E08F2DC9DFF2CF1F920F920FB67D
:103080000F9211240F931F932F933F934F935F93AE
:103090006F937F938F939F93AF93BF93EF93FF9320
:1030A000CF93DF930F92CDB7DEB719824ADFCE01FF
:1030B000019655DF082F069506950695282F22952F
:1030C0002570902F9570290F922F93702695269535
:1030D000920F982797708981982B09F058C0043077
:1030E00008F055C080E18A95F1F75A9A529A82E029
:1030F0008A95F1F700C05A9888E0089F8001112452
:10310000D801AD5FBE4F1696ED91FC9117973097A1
:10311000A9F060919C0170919D0114962D913C91B4
:103120001597260F371F11968D919C911297680F56
:10313000791F13964C9113978C910995F801ED5FC7
:10314000FE4F6381662349F020919C0130919D01DF
:1031500084819581820F931F79DFFBDE80E18A9560
:10316000F1F75A9852985A9A80E18A95F1F7F80146
:10317000ED5FFE4F6081662349F020919C01309104
:103180009D0181819281820F931F15DFDADE0F90FE
:10319000DF91CF91FF91EF91BF91AF919F918F916F
:1031A0007F916F915F914F913F912F911F910F915F
:1031B0000F900FBE0F901F9018950F931F93CF93F2
:1031C000DF93EC0104970CF049C0F894529A5A9896
:1031D00085E08A95F1F700009C2F969595708C2FCD
:1031E0008570980F892F83709695969523E0CC0F64
:1031F000DD1F2A95E1F7980F8E01092BAADE00C08A
:1032000068E0802F02DF80E18A95F1F752985A9AA0
:103210004A9B1DC087E090E04A991BC0FE01ED5F0C
:10322000FE4F63816623F1F020919C0130919D0156
:1032300084819581820F931FBEDE811113C0529A43
:103240005A9A7894DF91CF911F910F91089500C001
:10325000DFCF019729F4529A5A9A789480E0F2CFFE
:1032600000C0DACF6EDE80E28A95F1F75A98529A62
:1032700080E18A95F1F7CD5FDE4F6881662349F0E2
:1032800020919C0130919D0189819A81820F931F29
:10329000DDDE5FDE789481E0D5CF90939F0180934F
:1032A0009E01089590938D0280938C0208950E9450
:1032B0000311811103C0809187020895E0918C026F
:1032C000F0918D02309729F00190F081E02D099561
:1032D000089580E00895E0918C02F0918D0230977E
:1032E00099F020912F01222359F02091B90227FF54
:1032F00007C0DC012C9111962C93119726E02C939A
:103300000280F381E02D09950895E0918C02F091FF
:103310008D02309739F022E0DC012C930480F58196
:10332000E02D0995089520918A0230918B0228178B
:10333000390771F090938B0280938A02E0918C029E
:10334000F0918D02309721F00680F781E02D0995EC
:10335000089520918802309189022817390771F069
:103360009093890280938802E0918C02F0918D0203
:10337000309721F00084F185E02D09950895FC0136
:10338000329680912F01882321F08091B9029EE12D
:1033900087FF96E080E0915008F408952191222360
:1033A000D1F38F5FF8CF662301F120912F01222303
:1033B000F1F02091B90227FF1AC0462F4695469595
:1033C00046954E3190F4677021E030E002C0220F44
:1033D000331F6A95E2F7840F911DFC01828190E012
:1033E0002823392381E0232B69F480E00895FC0130
:1033F000329608962191261721F0E817F907D1F7A0
:10340000F4CF81E008959C01FC0132969FEF80E0AB
:103410004191461751F09F3F19F4411101C0982F77
:103420008F5F8630A9F79F3F09F40895290F311D5A
:1034300097FD3A95F90162830895FC01329608964A
:103440002191261303C0DF0111971C92E817F90799
:10345000B9F70895E62FE695E695E695EE3168F41E
:10346000E80FF92FF11D677021E030E001C0220F55
:103470006A95EAF78281822B82830895E62FE6958A
:10348000E695E695EE3170F4E80FF92FF11D6770BF
:1034900021E030E001C0220F6A95EAF72095828191
:1034A00028232283089520912F01222331F0209197
:1034B000B90227FF02C0CECF0895A5CF089520916D
:1034C0002F01222331F02091B90227FF02C0D6CF6D
:1034D0000895B3CF0895FC01329680912F0188237F
:1034E00051F08091B90287FF06C08EE1DF011D9285
:1034F0008A95E9F7089586E0F9CF46E050E00E940A
:10350000B32221E0892B09F420E0822F0895089549
:10351000FECF0895811105C081E080938E02F8CF1F
:10352000089582E0FACF83E080938E02F1CF089570
:10353000F1CF089581E080938E02EACF0895FACF0B
:10354000089508950895FECF089508950895F9CF38
:103550000895CF93FADF0E948910F8DFC0E08C2F26
:103560000E94640F811105C0CF5FC830C1F7CF91B1
:10357000089581E0FCCF85B7806885BF85B78068F6
:1035800085BF08951F921FB61F9211248F939F939A
:10359000AF93BF9380918F02811113C08091CD02B0
:1035A0009091CE02A091CF02B091D0024196A11D80
:1035B000B11D8093CD029093CE02A093CF02B09321
:1035C000D002BF91AF919F918F911F901FBE1F900E
:1035D00018958091D502843031F10E949A021092A0
:1035E0008F0288E190E020E40FB6F894A8958093CC
:1035F00060000FBE2093600083B7817F846083BF2B
:1036000083B7816083BF7894889583B78E7F83BFAB
:103610000FB6F894A895809160008861809360004F
:10362000109260000FBE08950E9429060C949E021D
:10363000089582E084BD93E095BD9AEF97BD809395
:103640006E0008952FB7F8948091CD029091CE022C
:10365000A091CF02B091D0022FBF08952FB7F89458
:103660006091CD027091CE028091CF029091D002F4
:103670002FBF08959C014FB7F8948091CD0290918F
:10368000CE02A091CF02B091D0024FBF821B930B0C
:103690000895CF92DF92EF92FF922FB7F894C090E7
:1036A000CD02D090CE02E090CF02F090D0022FBF9A
:1036B000A7019601261B370B480B590BCA01B9010C
:1036C000FF90EF90DF90CF90089578941F921FB6EF
:1036D0001F9211248F939F93AF93BF938091CD023C
:1036E0009091CE02A091CF02B091D0020196A11D7F
:1036F000B11D8093CD029093CE02A093CF02B093E0
:10370000D002BF91AF919F918F911F901FBE1F90CC
:10371000189587E797E7909301088093000888E160
:103720009AE00FB6F894A895809360000FBE90932E
:103730006000FFCF88E19AE00FB6F894A8958093D7
:1037400060000FBE90936000FFCF8091B302089598
:1037500008959C0182E08093E9009FEF8091E8004A
:10376000915085FD06C085ED8A95F1F70000911115
:10377000F5CF8091E80085FF0BC050E040E066E0A7
:1037800070E0C90110D28091E8008E778093E80044
:103790000895CF93DF93EC0180912F018823A9F145
:1037A0008091B90287FF31C060E282E08093E90036
:1037B0008FEF9091E800815095FD06C095ED9A95A8
:1037C000F1F700008111F5CF8091E80085FF1AC064
:1037D00080912F0170E050E040E0811104C050E082
:1037E00040E068E070E0CE01DED18091E8008E77A5
:1037F0008093E80080E2FE01A3E9B2E001900D921F
:103800008A95E1F7DF91CF91089568E081E0CECF0E
:103810008093900270939202609391028091D502FE
:103820008430F9F482E08093E9008FEF9091E80012
:10383000815095FD06C095ED9A95F1F70000811134
:10384000F5CF8091E80085FF0CC050E040E063E0D8
:1038500070E080E992E0A7D18091E8008E778093B4
:10386000E8000895BC0184E0D3CF0895BC0183E053
:10387000CFCF08958091D402811107C022D379D38C
:103880008091E20084608093E20008951092D40257
:10389000089550CE08956091D10281E0611101C078
:1038A00080E041CE08959091D50281E0943009F0F6
:1038B00080E06091D1023CCE089542E061EC81E06D
:1038C0007CD242E261EC82E078D29091D50281E034
:1038D000943009F080E06091D1021CCE089580916F
:1038E000D702833009F45FC030F48130C9F18230EF
:1038F00009F49AC008958A3009F487C08B3009F41E
:103900006DC0893009F04EC08091D602813209F035
:1039100049C08091DA029091DB02029708F042C020
:103920008091E800877F8093E8008091E80082FF23
:1039300035C09091F3008091F200029731F48091AC
:10394000F100813011F0863021F48091F1008093F4
:10395000B3028091E8008B778093E80062D222C0A6
:103960008091D602813AF1F48091E800877F8093BC
:10397000E8008091DA029091DB02892B59F460E231
:1039800083E992E070E05CD18091E8008B778093CE
:10399000E800089560E090E080E0F4CF8091D502E7
:1039A0008111C3CF08958091D602813AD9F78091D1
:1039B000DA029091DB02892BA9F78091E800877FDA
:1039C0008093E8008091E80080FFFCCF80912F0178
:1039D0008093F1008091E8008E77BECF8091D6026F
:1039E000813201F78091DA029091DB02892BD1F6C6
:1039F0008091E800877F8093E80013D28091D802FD
:103A000080932F010C94290608958091D60281326B
:103A100049F68091E800877F8093E80002D2809188
:103A2000D9028093B40208958091D602813A09F0B8
:103A3000B9CF8091E800877F8093E8008091E8000B
:103A400080FFFCCF8091B402C3CF84B7877F84BF4F
:103A50000FB6F894A895809160008861809360000B
:103A6000109260000FBE80E890E00FB6F89480934B
:103A70006100909361000FBE62CD089522D279D289
:103A8000E2EEF0E08081846080837894DDC4089564
:103A900083E291E007CC08958091D502853029F426
:103AA0008091D502853011F0BFCD089592DD8091CF
:103AB000D3028823A9F34DDD882391F35ED00E94C1
:103AC0002906EECF089501C00895292F332723300A
:103AD000310519F168F42130310509F444C0223070
:103AE000310509F445C090E080E030E020E025C0D9
:103AF0002132310549F122323105A9F780E490E005
:103B000027E533E061157105C1F086EB90E021EA0D
:103B100032E06130710589F0E6CF99278130910557
:103B200081F0009729F00297F1F6ECE2F2E002C092
:103B3000E0E5F2E0849190E09F01FA013183208377
:103B40000895ECE3F2E0F6CF89E090E026E632E07B
:103B50006115710591F389E090E02FE732E0613063
:103B6000710559F3C0CF82E190E02FE832E0E5CF54
:103B70008BE390E024E532E0E0CF80E189BD82E193
:103B800089BD09B400FEFDCF8091D8008F7D809360
:103B9000D8008091E00082608093E0008091E00096
:103BA00081FDFCCF0895AF92BF92CF92DF92FF923A
:103BB0000F931F93CF93DF936C01EB018A0150D1D8
:103BC000F82E811123C00115110539F0F80180810B
:103BD0009181C81BD90BC80ED91EB12CA12C2097DE
:103BE000A9F08091E80085FD21C08091E8008E77E2
:103BF0008093E80001151105A1F0F8018081918101
:103C0000A80EB91EB182A08285E0F82E8F2DDF911B
:103C1000CF911F910F91FF90DF90CF90BF90AF9009
:103C200008951ED18823D9F2F82EF0CFF6018191A4
:103C30006F018093F1002197FFEFAF1ABF0ACFCF3A
:103C4000FC018091DC029091DD0286179707A0F0BD
:103C50006115710529F49091E8009E779093E80032
:103C600090E06115710551F4911108C08091E80050
:103C700082FF34C080E00895BC01F2CF8091D5026C
:103C80008823C1F18530C1F18091E80083FD30C007
:103C90008091E80082FDEACF8091E80080FFE1CFCB
:103CA0008091F3002091F200382F6115710519F011
:103CB0002830310558F091E02830310509F090E0C6
:103CC0002091E8002E772093E800CBCF819180935C
:103CD000F100615071092F5F3F4FE7CF8091D5020E
:103CE000882341F0853041F08091E80083FFBECF0A
:103CF00081E0089582E0089583E00895FC018091B9
:103D0000DC029091DD0286179707A0F0611571051E
:103D100029F48091E8008E778093E80090E06115A7
:103D2000710551F4911108C08091E80082FF35C0FF
:103D300080E00895BC01F2CF8091D5028823C9F1BB
:103D40008530C9F18091E80083FD31C08091E800A1
:103D500082FDEACF8091E80080FFE1CF8091F300FF
:103D60002091F200382F6115710519F028303105C6
:103D700058F091E02830310509F090E08091E8009A
:103D80008E778093E800CBCF84918093F1003196B9
:103D9000615071092F5F3F4FE6CF8091D502882394
:103DA00041F0853041F08091E80083FFBDCF81E094
:103DB000089582E0089583E00895982F973028F0C1
:103DC0008F708093E90081E008959093E900242F9B
:103DD000762F50E0981731F07091EC002091ED00B3
:103DE0005091F00021FD02C09F5FE8CF3091EB00C1
:103DF0003E7F3093EB003091ED003D7F3093ED003E
:103E00003091EB0031603093EB007093EC00209325
:103E1000ED005093F0002091EE0027FDE5CF80E00B
:103E200008958091D60287FF13C08091E80082FF39
:103E300006C08091E8008B778093E80004C08091F1
:103E4000D5028111F2CF08958091D5028823D9F34C
:103E50008091E80080FFF8CF8091E8008E77ECCF6A
:103E60002091E4003091E50095E6A9012091EC0055
:103E7000822F817020FF06C08091E80080FF06C07D
:103E800080E008952091E80022FD1AC08091D502BB
:103E9000882389F0853089F08091EB0085FD0FC083
:103EA0002091E4003091E50042175307F9F2915058
:103EB000E1F684E0089582E0089583E0089581E0CA
:103EC000089568D06FD0E0EEF0E08081816080835B
:103ED000E8EDF0E080818F77808319BCA7EDB0E03A
:103EE0008C918E7F8C9380818F7E80831092D40200
:103EF00008950F931F93CF93DF934CD053D0C8ED09
:103F0000D0E088818F7788838881806888838881E2
:103F10008F7D888319BC1092D5021092D102109225
:103F2000D3021092D20200EE10E0F80180818B7F64
:103F3000808388818160888342E060E080E03DDFAB
:103F4000E1EEF0E080818E7F8083E2EEF0E0808120
:103F500081608083808188608083F80180818E7F8A
:103F60008083888180618883DF91CF911F910F9139
:103F70000895E8EDF0E080818F7E8083E7EDF0E04A
:103F800080818160808384E082BF81E08093D4025D
:103F9000B0CF0895E8EDF0E080818E7F80831092AD
:103FA000E20008951092DA001092E10008951F9245
:103FB0000F920FB60F9211242F933F934F935F935D
:103FC0006F937F938F939F93AF93BF93EF93FF93E1
:103FD0008091E10082FF0AC08091E20082FF06C06A
:103FE0008091E1008B7F8093E1002DD28091DA00F7
:103FF00080FF18C08091D80080FF14C08091DA0043
:104000008E7F8093DA008091D90080FF91C080E19B
:1040100089BD82E189BD09B400FEFDCF81E08093B6
:10402000D50228DC8091E10080FF18C08091E20079
:1040300080FF14C08091E2008E7F8093E200809127
:10404000E20080618093E2008091D80080628093DA
:10405000D80019BC85E08093D5021DDC8091E10079
:1040600084FF2AC08091E20084FF26C080E189BDE0
:1040700082E189BD89B5982F917080FFFBCF809137
:10408000D8008F7D8093D8008091E1008F7E80934F
:10409000E1008091E2008F7E8093E2008091E20057
:1040A00081608093E2008091D102882309F445C0A9
:1040B00084E08093D502F7DB8091E10083FF27C085
:1040C0008091E20083FF23C08091E100877F80938D
:1040D000E10082E08093D5021092D1028091E1004C
:1040E0008E7F8093E1008091E2008E7F8093E200DA
:1040F0008091E20080618093E20042E060E080E035
:104100005CDE8091F00088608093F000C2DBFF915C
:10411000EF91BF91AF919F918F917F916F915F913F
:104120004F913F912F910F900FBE0F901F901895B8
:1041300019BC1092D502AADB75CF8091E30087FDF0
:1041400093E09093D502B7CF1F920F920FB60F92C4
:1041500011242F933F934F935F936F937F938F938C
:104160009F93AF93BF93CF93DF93EF93FF93D09140
:10417000E900DF708091EC00C82FC17080FDC0E8BD
:104180001092E9008091F000877F8093F00078948E
:104190001ED01092E9008091F00088608093F000BA
:1041A000CD2BCF70C093E900FF91EF91DF91CF91BC
:1041B000BF91AF919F918F917F916F915F914F913F
:1041C0003F912F910F900FBE0F901F901895AAE26C
:1041D000B0E0ECEEF0E28BC186ED92E02091F100D0
:1041E000FC012193CF01F2E08E3D9F07B9F777DB09
:1041F0008091E80083FF16C18091D6029091D7028A
:104200009A3008F00FC1E92FF0E0EE5EFC4D5AC184
:10421000803899F0823809F005C18091DA028F70F8
:10422000873008F0FFC08093E9008091EB0085FBA8
:10423000882780F91092E90006C08091D2029091FF
:10424000D302911182609091E800977F9093E800EB
:104250008093F1001092F1008091E8008E77DFC02A
:10426000882309F4CDC0823009F0DCC08091D802E7
:104270008111D0C08091DA028F702FEF280F263085
:1042800008F0D0C08093E9002091EB0020FFC2C06D
:10429000933031F48091EB0080628093EB00BAC0E0
:1042A0009091EB0090619093EB0021E030E001C031
:1042B000220F8A95EAF72093EA001092EA00809193
:1042C000EB008860EACF8111ADC01091D8021F7752
:1042D0008091E3008078812B8093E3008091E80057
:1042E000877F8093E8009DDD8091E80080FFFCCF10
:1042F0008091E30080688093E30082E0111183E005
:104300008093D5028FC08058823008F08BC0809196
:10431000D8029091D9028C3D23E0920799F583E071
:104320008A838AE289834FB7F894DE01139620E0EE
:104330003EE051E2E32FF0E050935700E49120FF7C
:1043400003C0E295EF703F5FEF708E2F90E0EA3090
:10435000B8F0C7968D939D932F5F243159F74FBFC7
:104360008091E800877F8093E8006AE270E0CE01E8
:10437000019666DC8091E8008B778093E80052C05C
:10438000C096E8CF6091DA027091DB02AE014F5F18
:104390005F4F99DBBC01892B09F444C09091E80080
:1043A000977F9093E80089819A81A8DCE3CF8038D9
:1043B000C9F58091E800877F8093E8008091D10261
:1043C0008093F10049CF81112DC09091D802923095
:1043D00048F58091E800877F8093E8009093D102B0
:1043E00020DD8091D102882311F084E005C0809106
:1043F000E30087FDFACF81E08093D5025EDA12C038
:104400008091D802813071F481E0933009F080E02E
:104410008093D3021092E9008091E800877F809317
:10442000E800FFDC8091E80083FF0AC08091E8008B
:10443000877F8093E8008091EB0080628093EB009F
:10444000AA96E3E070C00895CF938091D5028823A7
:1044500099F0C091E900CF709091EC00892F8170A4
:1044600090FD80E8C82B1092E9008091E80083FD60
:10447000AEDECF70C093E900CF91089522DD109297
:10448000D5020895E8EDF0E08081806180838AE1C3
:104490008A95F1F700C08091D9008170089597FB4B
:1044A000072E16F4009406D077FD08D048D007FCFC
:1044B00005D03EF4909581959F4F08957095619534
:1044C0007F4F0895EE0FFF1F0590F491E02D0994A2
:1044D0002F923F924F925F926F927F928F929F9214
:1044E000AF92BF92CF92DF92EF92FF920F931F9302
:1044F000CF93DF93CDB7DEB7CA1BDB0B0FB6F894B3
:10450000DEBF0FBECDBF09942A88398848885F84F2
:104510006E847D848C849B84AA84B984C884DF8063
:10452000EE80FD800C811B81AA81B981CE0FD11D47
:104530000FB6F894DEBF0FBECDBFED010895AA1BE4
:10454000BB1B51E107C0AA1FBB1FA617B70710F07E
:10455000A61BB70B881F991F5A95A9F780959095B0
:10456000BC01CD010895FB01DC0104C08D910190D7
:10457000801921F441505040C8F7881B990B0895C9
:10458000FB01DC0102C001900D9241505040D8F770
:104590000895F999FECF92BD81BDF89A992780B50B
:1045A0000895A8E1B0E042E050E020C0262FF9993C
:1045B000FECF92BD81BDF89A019700B4021639F082
:1045C0001FBA20BD0FB6F894FA9AF99A0FBE089553
:1045D0000396272FECDFEADF252FE9DF242FE7CF33
:1045E0000196272FE4DFE2CFDC01CB01FC01F99932
:1045F000FECF06C0F2BDE1BDF89A319600B40D922F
:1046000041505040B8F70895F894FFCF3204320477
:104610005C045C04D704F30487048704FE04820569
:104620008E058E05082130211222302112226321AD
:0846300083211222D721E321AE
:104638002202010000000100000000000000040147
:104648000000000405000000000000280850011EBA
:104658000A1401A51BC91BA91B361C321CA81B0167
:10466800E200E900EA00B500B600B700CD0083011A
:10467800CC008A019201940121022302240225021E
:10468800260227022A02B300B4006F00700081825C
:1046980083E200E900EA00B500B600B700CD008368
:1046A80001CC008A019201940121022302240225EF
:1046B80002260227022A02B300B4006F00700081AC
:0E46C8008283F4F5F6F73133946697C65D02EF
:00000001FF
